{
  "address": "0x0165878A594ca255338adfa4d48449f69242Eb8F",
  "abi": [
    {
      "inputs": [
        {
          "internalType": "address",
          "name": "vrfCoordinator",
          "type": "address"
        },
        {
          "internalType": "bytes32",
          "name": "keyHash",
          "type": "bytes32"
        },
        {
          "internalType": "uint64",
          "name": "subId",
          "type": "uint64"
        },
        {
          "internalType": "uint256",
          "name": "_AVAILABLE_SUPPLY",
          "type": "uint256"
        },
        {
          "internalType": "uint256",
          "name": "_MINT_COST",
          "type": "uint256"
        },
        {
          "internalType": "uint256",
          "name": "_RAFFLE_BLOCKS_DURATION",
          "type": "uint256"
        }
      ],
      "stateMutability": "nonpayable",
      "type": "constructor"
    },
    {
      "inputs": [
        {
          "internalType": "address",
          "name": "have",
          "type": "address"
        },
        {
          "internalType": "address",
          "name": "want",
          "type": "address"
        }
      ],
      "name": "OnlyCoordinatorCanFulfill",
      "type": "error"
    },
    {
      "anonymous": false,
      "inputs": [
        {
          "indexed": true,
          "internalType": "address",
          "name": "owner",
          "type": "address"
        },
        {
          "indexed": true,
          "internalType": "address",
          "name": "approved",
          "type": "address"
        },
        {
          "indexed": true,
          "internalType": "uint256",
          "name": "tokenId",
          "type": "uint256"
        }
      ],
      "name": "Approval",
      "type": "event"
    },
    {
      "anonymous": false,
      "inputs": [
        {
          "indexed": true,
          "internalType": "address",
          "name": "owner",
          "type": "address"
        },
        {
          "indexed": true,
          "internalType": "address",
          "name": "operator",
          "type": "address"
        },
        {
          "indexed": false,
          "internalType": "bool",
          "name": "approved",
          "type": "bool"
        }
      ],
      "name": "ApprovalForAll",
      "type": "event"
    },
    {
      "anonymous": false,
      "inputs": [
        {
          "indexed": true,
          "internalType": "address",
          "name": "user",
          "type": "address"
        },
        {
          "indexed": false,
          "internalType": "uint256",
          "name": "tokenId",
          "type": "uint256"
        }
      ],
      "name": "Minted",
      "type": "event"
    },
    {
      "anonymous": false,
      "inputs": [
        {
          "indexed": true,
          "internalType": "address",
          "name": "previousOwner",
          "type": "address"
        },
        {
          "indexed": true,
          "internalType": "address",
          "name": "newOwner",
          "type": "address"
        }
      ],
      "name": "OwnershipTransferred",
      "type": "event"
    },
    {
      "anonymous": false,
      "inputs": [
        {
          "indexed": true,
          "internalType": "address",
          "name": "user",
          "type": "address"
        },
        {
          "indexed": false,
          "internalType": "uint256",
          "name": "ticketId",
          "type": "uint256"
        }
      ],
      "name": "TicketSold",
      "type": "event"
    },
    {
      "anonymous": false,
      "inputs": [
        {
          "indexed": true,
          "internalType": "address",
          "name": "from",
          "type": "address"
        },
        {
          "indexed": true,
          "internalType": "address",
          "name": "to",
          "type": "address"
        },
        {
          "indexed": true,
          "internalType": "uint256",
          "name": "tokenId",
          "type": "uint256"
        }
      ],
      "name": "Transfer",
      "type": "event"
    },
    {
      "inputs": [],
      "name": "AVAILABLE_SUPPLY",
      "outputs": [
        {
          "internalType": "uint256",
          "name": "",
          "type": "uint256"
        }
      ],
      "stateMutability": "view",
      "type": "function"
    },
    {
      "inputs": [],
      "name": "CALLBACK_GAS_LIMIT",
      "outputs": [
        {
          "internalType": "uint32",
          "name": "",
          "type": "uint32"
        }
      ],
      "stateMutability": "view",
      "type": "function"
    },
    {
      "inputs": [],
      "name": "MAX_PER_ADDRESS",
      "outputs": [
        {
          "internalType": "uint256",
          "name": "",
          "type": "uint256"
        }
      ],
      "stateMutability": "view",
      "type": "function"
    },
    {
      "inputs": [],
      "name": "MINIMUM_CONFIRMATIONS",
      "outputs": [
        {
          "internalType": "uint16",
          "name": "",
          "type": "uint16"
        }
      ],
      "stateMutability": "view",
      "type": "function"
    },
    {
      "inputs": [],
      "name": "MINT_COST",
      "outputs": [
        {
          "internalType": "uint256",
          "name": "",
          "type": "uint256"
        }
      ],
      "stateMutability": "view",
      "type": "function"
    },
    {
      "inputs": [
        {
          "internalType": "uint256",
          "name": "",
          "type": "uint256"
        }
      ],
      "name": "NFTsId",
      "outputs": [
        {
          "internalType": "uint256",
          "name": "",
          "type": "uint256"
        }
      ],
      "stateMutability": "view",
      "type": "function"
    },
    {
      "inputs": [],
      "name": "RAFFLE_FINALIZATION_BLOCKNUMBER",
      "outputs": [
        {
          "internalType": "uint256",
          "name": "",
          "type": "uint256"
        }
      ],
      "stateMutability": "view",
      "type": "function"
    },
    {
      "inputs": [],
      "name": "WORDS_AMOUNT",
      "outputs": [
        {
          "internalType": "uint32",
          "name": "",
          "type": "uint32"
        }
      ],
      "stateMutability": "view",
      "type": "function"
    },
    {
      "inputs": [
        {
          "internalType": "address",
          "name": "to",
          "type": "address"
        },
        {
          "internalType": "uint256",
          "name": "tokenId",
          "type": "uint256"
        }
      ],
      "name": "approve",
      "outputs": [],
      "stateMutability": "nonpayable",
      "type": "function"
    },
    {
      "inputs": [
        {
          "internalType": "address",
          "name": "owner",
          "type": "address"
        }
      ],
      "name": "balanceOf",
      "outputs": [
        {
          "internalType": "uint256",
          "name": "",
          "type": "uint256"
        }
      ],
      "stateMutability": "view",
      "type": "function"
    },
    {
      "inputs": [],
      "name": "buyTicket",
      "outputs": [],
      "stateMutability": "payable",
      "type": "function"
    },
    {
      "inputs": [],
      "name": "entropy",
      "outputs": [
        {
          "internalType": "uint256",
          "name": "",
          "type": "uint256"
        }
      ],
      "stateMutability": "view",
      "type": "function"
    },
    {
      "inputs": [
        {
          "internalType": "uint256",
          "name": "tokenId",
          "type": "uint256"
        }
      ],
      "name": "getApproved",
      "outputs": [
        {
          "internalType": "address",
          "name": "",
          "type": "address"
        }
      ],
      "stateMutability": "view",
      "type": "function"
    },
    {
      "inputs": [],
      "name": "getNFTsIdLength",
      "outputs": [
        {
          "internalType": "uint256",
          "name": "",
          "type": "uint256"
        }
      ],
      "stateMutability": "view",
      "type": "function"
    },
    {
      "inputs": [],
      "name": "getRequestId",
      "outputs": [
        {
          "internalType": "uint256",
          "name": "",
          "type": "uint256"
        }
      ],
      "stateMutability": "view",
      "type": "function"
    },
    {
      "inputs": [],
      "name": "getSoldTickets",
      "outputs": [
        {
          "internalType": "uint256",
          "name": "",
          "type": "uint256"
        }
      ],
      "stateMutability": "view",
      "type": "function"
    },
    {
      "inputs": [
        {
          "internalType": "address",
          "name": "owner",
          "type": "address"
        },
        {
          "internalType": "address",
          "name": "operator",
          "type": "address"
        }
      ],
      "name": "isApprovedForAll",
      "outputs": [
        {
          "internalType": "bool",
          "name": "",
          "type": "bool"
        }
      ],
      "stateMutability": "view",
      "type": "function"
    },
    {
      "inputs": [],
      "name": "isRaffleOpen",
      "outputs": [
        {
          "internalType": "bool",
          "name": "",
          "type": "bool"
        }
      ],
      "stateMutability": "view",
      "type": "function"
    },
    {
      "inputs": [],
      "name": "mint",
      "outputs": [],
      "stateMutability": "nonpayable",
      "type": "function"
    },
    {
      "inputs": [],
      "name": "name",
      "outputs": [
        {
          "internalType": "string",
          "name": "",
          "type": "string"
        }
      ],
      "stateMutability": "view",
      "type": "function"
    },
    {
      "inputs": [],
      "name": "owner",
      "outputs": [
        {
          "internalType": "address",
          "name": "",
          "type": "address"
        }
      ],
      "stateMutability": "view",
      "type": "function"
    },
    {
      "inputs": [
        {
          "internalType": "uint256",
          "name": "tokenId",
          "type": "uint256"
        }
      ],
      "name": "ownerOf",
      "outputs": [
        {
          "internalType": "address",
          "name": "",
          "type": "address"
        }
      ],
      "stateMutability": "view",
      "type": "function"
    },
    {
      "inputs": [
        {
          "internalType": "address",
          "name": "",
          "type": "address"
        }
      ],
      "name": "participants",
      "outputs": [
        {
          "internalType": "uint256",
          "name": "tokenId",
          "type": "uint256"
        },
        {
          "internalType": "uint256",
          "name": "randomIndex",
          "type": "uint256"
        },
        {
          "internalType": "uint256",
          "name": "minted",
          "type": "uint256"
        },
        {
          "internalType": "uint256",
          "name": "ownedTickets",
          "type": "uint256"
        }
      ],
      "stateMutability": "view",
      "type": "function"
    },
    {
      "inputs": [],
      "name": "proceedsClaimed",
      "outputs": [
        {
          "internalType": "bool",
          "name": "",
          "type": "bool"
        }
      ],
      "stateMutability": "view",
      "type": "function"
    },
    {
      "inputs": [
        {
          "internalType": "uint256",
          "name": "requestId",
          "type": "uint256"
        },
        {
          "internalType": "uint256[]",
          "name": "randomWords",
          "type": "uint256[]"
        }
      ],
      "name": "rawFulfillRandomWords",
      "outputs": [],
      "stateMutability": "nonpayable",
      "type": "function"
    },
    {
      "inputs": [],
      "name": "renounceOwnership",
      "outputs": [],
      "stateMutability": "nonpayable",
      "type": "function"
    },
    {
      "inputs": [],
      "name": "requestRandomness",
      "outputs": [],
      "stateMutability": "nonpayable",
      "type": "function"
    },
    {
      "inputs": [
        {
          "internalType": "address",
          "name": "from",
          "type": "address"
        },
        {
          "internalType": "address",
          "name": "to",
          "type": "address"
        },
        {
          "internalType": "uint256",
          "name": "tokenId",
          "type": "uint256"
        }
      ],
      "name": "safeTransferFrom",
      "outputs": [],
      "stateMutability": "nonpayable",
      "type": "function"
    },
    {
      "inputs": [
        {
          "internalType": "address",
          "name": "from",
          "type": "address"
        },
        {
          "internalType": "address",
          "name": "to",
          "type": "address"
        },
        {
          "internalType": "uint256",
          "name": "tokenId",
          "type": "uint256"
        },
        {
          "internalType": "bytes",
          "name": "data",
          "type": "bytes"
        }
      ],
      "name": "safeTransferFrom",
      "outputs": [],
      "stateMutability": "nonpayable",
      "type": "function"
    },
    {
      "inputs": [
        {
          "internalType": "address",
          "name": "operator",
          "type": "address"
        },
        {
          "internalType": "bool",
          "name": "approved",
          "type": "bool"
        }
      ],
      "name": "setApprovalForAll",
      "outputs": [],
      "stateMutability": "nonpayable",
      "type": "function"
    },
    {
      "inputs": [
        {
          "internalType": "bytes4",
          "name": "interfaceId",
          "type": "bytes4"
        }
      ],
      "name": "supportsInterface",
      "outputs": [
        {
          "internalType": "bool",
          "name": "",
          "type": "bool"
        }
      ],
      "stateMutability": "view",
      "type": "function"
    },
    {
      "inputs": [],
      "name": "symbol",
      "outputs": [
        {
          "internalType": "string",
          "name": "",
          "type": "string"
        }
      ],
      "stateMutability": "view",
      "type": "function"
    },
    {
      "inputs": [
        {
          "internalType": "uint256",
          "name": "tokenId",
          "type": "uint256"
        }
      ],
      "name": "tokenURI",
      "outputs": [
        {
          "internalType": "string",
          "name": "",
          "type": "string"
        }
      ],
      "stateMutability": "view",
      "type": "function"
    },
    {
      "inputs": [
        {
          "internalType": "address",
          "name": "from",
          "type": "address"
        },
        {
          "internalType": "address",
          "name": "to",
          "type": "address"
        },
        {
          "internalType": "uint256",
          "name": "tokenId",
          "type": "uint256"
        }
      ],
      "name": "transferFrom",
      "outputs": [],
      "stateMutability": "nonpayable",
      "type": "function"
    },
    {
      "inputs": [
        {
          "internalType": "address",
          "name": "newOwner",
          "type": "address"
        }
      ],
      "name": "transferOwnership",
      "outputs": [],
      "stateMutability": "nonpayable",
      "type": "function"
    },
    {
      "inputs": [],
      "name": "withdrawRaffleProceeds",
      "outputs": [],
      "stateMutability": "nonpayable",
      "type": "function"
    }
  ],
  "transactionHash": "0x6f788c933144b3a045af2d271ece1bb51555f559818d7357ca4dd4cde5dfd8ef",
  "args": [
    "0x9fE46736679d2D9a65F0992F2272dE9f3c7fa6e0",
    "0xd89b2bf150e3b9e13446986e571fb9cab24b13cea0a43ea20a6049a85cc807cc",
    "1",
    1,
    "100000000000000000",
    1000
  ],
  "numDeployments": 1,
  "solcInputHash": "09c6df26f0b580455cd209bffe1dac16",
  "bytecode": "0x6101606040526001610100908152506000600a60006101000a81548160ff0219169083151502179055503480156200003657600080fd5b50604051620049aa380380620049aa83398181016040528101906200005c919062000389565b6040518060400160405280600a81526020017f52616e646f6d204e4654000000000000000000000000000000000000000000008152506040518060400160405280600481526020017f724e465400000000000000000000000000000000000000000000000000000000815250878073ffffffffffffffffffffffffffffffffffffffff1660808173ffffffffffffffffffffffffffffffffffffffff1660601b81525050508160009080519060200190620001199291906200027d565b508060019080519060200190620001329291906200027d565b5050506200015562000149620001af60201b60201c565b620001b760201b60201c565b8260c081815250508160e08181525050804362000173919062000425565b60a081815250508461012081815250508367ffffffffffffffff166101408167ffffffffffffffff1660c01b81525050505050505050620005df565b600033905090565b6000600660009054906101000a900473ffffffffffffffffffffffffffffffffffffffff16905081600660006101000a81548173ffffffffffffffffffffffffffffffffffffffff021916908373ffffffffffffffffffffffffffffffffffffffff1602179055508173ffffffffffffffffffffffffffffffffffffffff168173ffffffffffffffffffffffffffffffffffffffff167f8be0079c531659141344cd1fd0a4f28419497f9722a3daafe3b4186f6b6457e060405160405180910390a35050565b8280546200028b90620004de565b90600052602060002090601f016020900481019282620002af5760008555620002fb565b82601f10620002ca57805160ff1916838001178555620002fb565b82800160010185558215620002fb579182015b82811115620002fa578251825591602001919060010190620002dd565b5b5090506200030a91906200030e565b5090565b5b80821115620003295760008160009055506001016200030f565b5090565b6000815190506200033e8162000577565b92915050565b600081519050620003558162000591565b92915050565b6000815190506200036c81620005ab565b92915050565b6000815190506200038381620005c5565b92915050565b60008060008060008060c08789031215620003a957620003a862000572565b5b6000620003b989828a016200032d565b9650506020620003cc89828a0162000344565b9550506040620003df89828a0162000372565b9450506060620003f289828a016200035b565b93505060806200040589828a016200035b565b92505060a06200041889828a016200035b565b9150509295509295509295565b60006200043282620004c0565b91506200043f83620004c0565b9250827fffffffffffffffffffffffffffffffffffffffffffffffffffffffffffffffff0382111562000477576200047662000514565b5b828201905092915050565b60006200048f82620004a0565b9050919050565b6000819050919050565b600073ffffffffffffffffffffffffffffffffffffffff82169050919050565b6000819050919050565b600067ffffffffffffffff82169050919050565b60006002820490506001821680620004f757607f821691505b602082108114156200050e576200050d62000543565b5b50919050565b7f4e487b7100000000000000000000000000000000000000000000000000000000600052601160045260246000fd5b7f4e487b7100000000000000000000000000000000000000000000000000000000600052602260045260246000fd5b600080fd5b620005828162000482565b81146200058e57600080fd5b50565b6200059c8162000496565b8114620005a857600080fd5b50565b620005b681620004c0565b8114620005c257600080fd5b50565b620005d081620004ca565b8114620005dc57600080fd5b50565b60805160601c60a05160c05160e05161010051610120516101405160c01c61432b6200067f6000396000611abf01526000611a9e015260008181610bb201528181610c5b01526116fa015260008181611539015261179e01526000818161091a015281816114b3015261168f01526000818161094d015281816115d70152611801015260008181610f5f01528181610fb30152611a62015261432b6000f3fe60806040526004361061020f5760003560e01c80636352211e11610118578063c662e481116100a0578063e6f8bff71161006f578063e6f8bff714610782578063e985e9c5146107ad578063edca914c146107ea578063f2fde38b146107f4578063f8413b071461081d5761020f565b8063c662e481146106c4578063c87b56dd146106ef578063d089adc71461072c578063d60ed9a8146107575761020f565b80638da5cb5b116100e75780638da5cb5b146105f157806395d89b411461061c578063a22cb46514610647578063b438e12e14610670578063b88d4fde1461069b5761020f565b80636352211e1461052357806370a0823114610560578063715018a61461059d5780637885142d146105b45761020f565b80631fe543e31161019b57806342842e0e1161016a57806342842e0e146104625780634694ad9c1461048b57806347ce07cc146104b657806355003593146104e15780635bc46074146104f85761020f565b80631fe543e3146103ba57806323b872dd146103e35780632aa51bdf1461040c57806333d608f1146104375761020f565b8063081812fc116101e2578063081812fc146102d2578063095ea7b31461030f57806309e69ede146103385780630aaef285146103785780631249c58b146103a35761020f565b806301ffc9a714610214578063060cb05d1461025157806306fdde031461027c578063077001b9146102a7575b600080fd5b34801561022057600080fd5b5061023b60048036038101906102369190612d34565b610834565b60405161024891906133ca565b60405180910390f35b34801561025d57600080fd5b50610266610916565b60405161027391906133ca565b60405180910390f35b34801561028857600080fd5b50610291610986565b60405161029e9190613438565b60405180910390f35b3480156102b357600080fd5b506102bc610a18565b6040516102c991906137b5565b60405180910390f35b3480156102de57600080fd5b506102f960048036038101906102f49190612d8e565b610a22565b604051610306919061333a565b60405180910390f35b34801561031b57600080fd5b5061033660048036038101906103319190612cf4565b610a68565b005b34801561034457600080fd5b5061035f600480360381019061035a9190612b71565b610b80565b60405161036f94939291906137d0565b60405180910390f35b34801561038457600080fd5b5061038d610bb0565b60405161039a91906137b5565b60405180910390f35b3480156103af57600080fd5b506103b8610bd4565b005b3480156103c657600080fd5b506103e160048036038101906103dc9190612de8565b610f5d565b005b3480156103ef57600080fd5b5061040a60048036038101906104059190612bde565b61101d565b005b34801561041857600080fd5b5061042161107d565b60405161042e91906137b5565b60405180910390f35b34801561044357600080fd5b5061044c61108e565b6040516104599190613815565b60405180910390f35b34801561046e57600080fd5b5061048960048036038101906104849190612bde565b611095565b005b34801561049757600080fd5b506104a06110b5565b6040516104ad9190613815565b60405180910390f35b3480156104c257600080fd5b506104cb6110ba565b6040516104d891906137b5565b60405180910390f35b3480156104ed57600080fd5b506104f66110c0565b005b34801561050457600080fd5b5061050d61122a565b60405161051a91906133ca565b60405180910390f35b34801561052f57600080fd5b5061054a60048036038101906105459190612d8e565b61123d565b604051610557919061333a565b60405180910390f35b34801561056c57600080fd5b5061058760048036038101906105829190612b71565b6112ef565b60405161059491906137b5565b60405180910390f35b3480156105a957600080fd5b506105b26113a7565b005b3480156105c057600080fd5b506105db60048036038101906105d69190612d8e565b6113bb565b6040516105e891906137b5565b60405180910390f35b3480156105fd57600080fd5b506106066113df565b604051610613919061333a565b60405180910390f35b34801561062857600080fd5b50610631611409565b60405161063e9190613438565b60405180910390f35b34801561065357600080fd5b5061066e60048036038101906106699190612cb4565b61149b565b005b34801561067c57600080fd5b506106856114b1565b60405161069291906137b5565b60405180910390f35b3480156106a757600080fd5b506106c260048036038101906106bd9190612c31565b6114d5565b005b3480156106d057600080fd5b506106d9611537565b6040516106e691906137b5565b60405180910390f35b3480156106fb57600080fd5b5061071660048036038101906107119190612d8e565b61155b565b6040516107239190613438565b60405180910390f35b34801561073857600080fd5b506107416115c3565b60405161074e919061379a565b60405180910390f35b34801561076357600080fd5b5061076c6115c8565b60405161077991906137b5565b60405180910390f35b34801561078e57600080fd5b506107976115d5565b6040516107a491906137b5565b60405180910390f35b3480156107b957600080fd5b506107d460048036038101906107cf9190612b9e565b6115f9565b6040516107e191906133ca565b60405180910390f35b6107f261168d565b005b34801561080057600080fd5b5061081b60048036038101906108169190612b71565b61194f565b005b34801561082957600080fd5b506108326119d3565b005b60007f80ac58cd000000000000000000000000000000000000000000000000000000007bffffffffffffffffffffffffffffffffffffffffffffffffffffffff1916827bffffffffffffffffffffffffffffffffffffffffffffffffffffffff191614806108ff57507f5b5e139f000000000000000000000000000000000000000000000000000000007bffffffffffffffffffffffffffffffffffffffffffffffffffffffff1916827bffffffffffffffffffffffffffffffffffffffffffffffffffffffff1916145b8061090f575061090e82611b60565b5b9050919050565b60007f0000000000000000000000000000000000000000000000000000000000000000610943600b611bca565b10801561097057507f00000000000000000000000000000000000000000000000000000000000000004311155b1561097e5760019050610983565b600090505b90565b60606000805461099590613ad7565b80601f01602080910402602001604051908101604052809291908181526020018280546109c190613ad7565b8015610a0e5780601f106109e357610100808354040283529160200191610a0e565b820191906000526020600020905b8154815290600101906020018083116109f157829003601f168201915b5050505050905090565b6000600c54905090565b6000610a2d82611bd8565b6004600083815260200190815260200160002060009054906101000a900473ffffffffffffffffffffffffffffffffffffffff169050919050565b6000610a738261123d565b90508073ffffffffffffffffffffffffffffffffffffffff168373ffffffffffffffffffffffffffffffffffffffff161415610ae4576040517f08c379a0000000000000000000000000000000000000000000000000000000008152600401610adb9061373a565b60405180910390fd5b8073ffffffffffffffffffffffffffffffffffffffff16610b03611c23565b73ffffffffffffffffffffffffffffffffffffffff161480610b325750610b3181610b2c611c23565b6115f9565b5b610b71576040517f08c379a0000000000000000000000000000000000000000000000000000000008152600401610b689061367a565b60405180910390fd5b610b7b8383611c2b565b505050565b60076020528060005260406000206000915090508060000154908060010154908060020154908060030154905084565b7f000000000000000000000000000000000000000000000000000000000000000081565b6000600760003373ffffffffffffffffffffffffffffffffffffffff1673ffffffffffffffffffffffffffffffffffffffff1681526020019081526020016000206003015411610c59576040517f08c379a0000000000000000000000000000000000000000000000000000000008152600401610c509061355a565b60405180910390fd5b7f0000000000000000000000000000000000000000000000000000000000000000600760003373ffffffffffffffffffffffffffffffffffffffff1673ffffffffffffffffffffffffffffffffffffffff1681526020019081526020016000206002015410610cfd576040517f08c379a0000000000000000000000000000000000000000000000000000000008152600401610cf49061375a565b60405180910390fd5b610d05610916565b15610d45576040517f08c379a0000000000000000000000000000000000000000000000000000000008152600401610d3c9061357a565b60405180910390fd5b60006009541415610d8b576040517f08c379a0000000000000000000000000000000000000000000000000000000008152600401610d82906135fa565b60405180910390fd5b6000610d95611ce4565b9050600060088281548110610dad57610dac613c70565b5b90600052602060002001549050610dc43382611cfe565b610dcd82611ed8565b81600760003373ffffffffffffffffffffffffffffffffffffffff1673ffffffffffffffffffffffffffffffffffffffff1681526020019081526020016000206001018190555080600760003373ffffffffffffffffffffffffffffffffffffffff1673ffffffffffffffffffffffffffffffffffffffff16815260200190815260200160002060000181905550600760003373ffffffffffffffffffffffffffffffffffffffff1673ffffffffffffffffffffffffffffffffffffffff1681526020019081526020016000206003016000815480929190610eae90613aad565b9190505550600760003373ffffffffffffffffffffffffffffffffffffffff1673ffffffffffffffffffffffffffffffffffffffff1681526020019081526020016000206002016000815480929190610f0690613b3a565b91905055503373ffffffffffffffffffffffffffffffffffffffff167f30385c845b448a36257a6a1716e6ad2e1bc2cbe333cde1e69fe849ad6511adfe82604051610f5191906137b5565b60405180910390a25050565b7f000000000000000000000000000000000000000000000000000000000000000073ffffffffffffffffffffffffffffffffffffffff163373ffffffffffffffffffffffffffffffffffffffff161461100f57337f00000000000000000000000000000000000000000000000000000000000000006040517f1cf993f4000000000000000000000000000000000000000000000000000000008152600401611006929190613355565b60405180910390fd5b6110198282611f66565b5050565b61102e611028611c23565b82612015565b61106d576040517f08c379a00000000000000000000000000000000000000000000000000000000081526004016110649061377a565b60405180910390fd5b6110788383836120aa565b505050565b6000611089600b611bca565b905090565b62124f8081565b6110b0838383604051806020016040528060008152506114d5565b505050565b600a81565b60095481565b6110c8612311565b6110d0610916565b15611110576040517f08c379a00000000000000000000000000000000000000000000000000000000081526004016111079061357a565b60405180910390fd5b600a60009054906101000a900460ff1615611160576040517f08c379a00000000000000000000000000000000000000000000000000000000081526004016111579061347a565b60405180910390fd5b6001600a60006101000a81548160ff02191690831515021790555060003373ffffffffffffffffffffffffffffffffffffffff16476040516111a190613325565b60006040518083038185875af1925050503d80600081146111de576040519150601f19603f3d011682016040523d82523d6000602084013e6111e3565b606091505b5050905080611227576040517f08c379a000000000000000000000000000000000000000000000000000000000815260040161121e9061349a565b60405180910390fd5b50565b600a60009054906101000a900460ff1681565b6000806002600084815260200190815260200160002060009054906101000a900473ffffffffffffffffffffffffffffffffffffffff169050600073ffffffffffffffffffffffffffffffffffffffff168173ffffffffffffffffffffffffffffffffffffffff1614156112e6576040517f08c379a00000000000000000000000000000000000000000000000000000000081526004016112dd9061371a565b60405180910390fd5b80915050919050565b60008073ffffffffffffffffffffffffffffffffffffffff168273ffffffffffffffffffffffffffffffffffffffff161415611360576040517f08c379a00000000000000000000000000000000000000000000000000000000081526004016113579061365a565b60405180910390fd5b600360008373ffffffffffffffffffffffffffffffffffffffff1673ffffffffffffffffffffffffffffffffffffffff168152602001908152602001600020549050919050565b6113af612311565b6113b9600061238f565b565b600881815481106113cb57600080fd5b906000526020600020016000915090505481565b6000600660009054906101000a900473ffffffffffffffffffffffffffffffffffffffff16905090565b60606001805461141890613ad7565b80601f016020809104026020016040519081016040528092919081815260200182805461144490613ad7565b80156114915780601f1061146657610100808354040283529160200191611491565b820191906000526020600020905b81548152906001019060200180831161147457829003601f168201915b5050505050905090565b6114ad6114a6611c23565b8383612455565b5050565b7f000000000000000000000000000000000000000000000000000000000000000081565b6114e66114e0611c23565b83612015565b611525576040517f08c379a000000000000000000000000000000000000000000000000000000000815260040161151c9061377a565b60405180910390fd5b611531848484846125c2565b50505050565b7f000000000000000000000000000000000000000000000000000000000000000081565b606061156682611bd8565b600061157061261e565b9050600081511161159057604051806020016040528060008152506115bb565b8061159a8461263e565b6040516020016115ab929190613301565b6040516020818303038152906040525b915050919050565b600381565b6000600880549050905090565b7f000000000000000000000000000000000000000000000000000000000000000081565b6000600560008473ffffffffffffffffffffffffffffffffffffffff1673ffffffffffffffffffffffffffffffffffffffff16815260200190815260200160002060008373ffffffffffffffffffffffffffffffffffffffff1673ffffffffffffffffffffffffffffffffffffffff16815260200190815260200160002060009054906101000a900460ff16905092915050565b7f00000000000000000000000000000000000000000000000000000000000000006116b8600b611bca565b106116f8576040517f08c379a00000000000000000000000000000000000000000000000000000000081526004016116ef906136ba565b60405180910390fd5b7f0000000000000000000000000000000000000000000000000000000000000000600760003373ffffffffffffffffffffffffffffffffffffffff1673ffffffffffffffffffffffffffffffffffffffff168152602001908152602001600020600301541061179c576040517f08c379a00000000000000000000000000000000000000000000000000000000081526004016117939061361a565b60405180910390fd5b7f00000000000000000000000000000000000000000000000000000000000000003410156117ff576040517f08c379a00000000000000000000000000000000000000000000000000000000081526004016117f6906136da565b60405180910390fd5b7f0000000000000000000000000000000000000000000000000000000000000000431115611862576040517f08c379a0000000000000000000000000000000000000000000000000000000008152600401611859906135da565b60405180910390fd5b600760003373ffffffffffffffffffffffffffffffffffffffff1673ffffffffffffffffffffffffffffffffffffffff16815260200190815260200160002060030160008154809291906118b590613b3a565b91905055506118c4600b61279f565b60086118d0600b611bca565b90806001815401808255809150506001900390600052602060002001600090919091909150553373ffffffffffffffffffffffffffffffffffffffff167f8ef92257fbc070823c8bb4051ff3a58b831946d893fbb1bfd9bc77b87ff77d09611938600b611bca565b60405161194591906137b5565b60405180910390a2565b611957612311565b600073ffffffffffffffffffffffffffffffffffffffff168173ffffffffffffffffffffffffffffffffffffffff1614156119c7576040517f08c379a00000000000000000000000000000000000000000000000000000000081526004016119be906134da565b60405180910390fd5b6119d08161238f565b50565b6000600c5414611a18576040517f08c379a0000000000000000000000000000000000000000000000000000000008152600401611a0f9061345a565b60405180910390fd5b611a20610916565b15611a60576040517f08c379a0000000000000000000000000000000000000000000000000000000008152600401611a579061357a565b60405180910390fd5b7f000000000000000000000000000000000000000000000000000000000000000073ffffffffffffffffffffffffffffffffffffffff16635d3b1d307f00000000000000000000000000000000000000000000000000000000000000007f0000000000000000000000000000000000000000000000000000000000000000600362124f80600a6040518663ffffffff1660e01b8152600401611b069594939291906133e5565b602060405180830381600087803b158015611b2057600080fd5b505af1158015611b34573d6000803e3d6000fd5b505050506040513d601f19601f82011682018060405250810190611b589190612dbb565b600c81905550565b60007f01ffc9a7000000000000000000000000000000000000000000000000000000007bffffffffffffffffffffffffffffffffffffffffffffffffffffffff1916827bffffffffffffffffffffffffffffffffffffffffffffffffffffffff1916149050919050565b600081600001549050919050565b611be1816127b5565b611c20576040517f08c379a0000000000000000000000000000000000000000000000000000000008152600401611c179061371a565b60405180910390fd5b50565b600033905090565b816004600083815260200190815260200160002060006101000a81548173ffffffffffffffffffffffffffffffffffffffff021916908373ffffffffffffffffffffffffffffffffffffffff160217905550808273ffffffffffffffffffffffffffffffffffffffff16611c9e8361123d565b73ffffffffffffffffffffffffffffffffffffffff167f8c5be1e5ebec7d5bd14f71427d1e84f3dd0314c0f7b2291e5b200ac8c7c3b92560405160405180910390a45050565b6000600880549050600954611cf99190613b83565b905090565b600073ffffffffffffffffffffffffffffffffffffffff168273ffffffffffffffffffffffffffffffffffffffff161415611d6e576040517f08c379a0000000000000000000000000000000000000000000000000000000008152600401611d659061369a565b60405180910390fd5b611d77816127b5565b15611db7576040517f08c379a0000000000000000000000000000000000000000000000000000000008152600401611dae9061351a565b60405180910390fd5b611dc360008383612821565b6001600360008473ffffffffffffffffffffffffffffffffffffffff1673ffffffffffffffffffffffffffffffffffffffff1681526020019081526020016000206000828254611e139190613900565b92505081905550816002600083815260200190815260200160002060006101000a81548173ffffffffffffffffffffffffffffffffffffffff021916908373ffffffffffffffffffffffffffffffffffffffff160217905550808273ffffffffffffffffffffffffffffffffffffffff16600073ffffffffffffffffffffffffffffffffffffffff167fddf252ad1be2c89b69c2b068fc378daa952ba7f163c4a11628f55a4df523b3ef60405160405180910390a4611ed460008383612826565b5050565b6008805490508110611ee957600080fd5b60086001600880549050611efd9190613987565b81548110611f0e57611f0d613c70565b5b906000526020600020015460088281548110611f2d57611f2c613c70565b5b90600052602060002001819055506008805480611f4d57611f4c613c41565b5b6001900381819060005260206000200160009055905550565b81600c5414611faa576040517f08c379a0000000000000000000000000000000000000000000000000000000008152600401611fa19061363a565b60405180910390fd5b600060095414611fef576040517f08c379a0000000000000000000000000000000000000000000000000000000008152600401611fe69061353a565b60405180910390fd5b8060008151811061200357612002613c70565b5b60200260200101516009819055505050565b6000806120218361123d565b90508073ffffffffffffffffffffffffffffffffffffffff168473ffffffffffffffffffffffffffffffffffffffff161480612063575061206281856115f9565b5b806120a157508373ffffffffffffffffffffffffffffffffffffffff1661208984610a22565b73ffffffffffffffffffffffffffffffffffffffff16145b91505092915050565b8273ffffffffffffffffffffffffffffffffffffffff166120ca8261123d565b73ffffffffffffffffffffffffffffffffffffffff1614612120576040517f08c379a0000000000000000000000000000000000000000000000000000000008152600401612117906134fa565b60405180910390fd5b600073ffffffffffffffffffffffffffffffffffffffff168273ffffffffffffffffffffffffffffffffffffffff161415612190576040517f08c379a00000000000000000000000000000000000000000000000000000000081526004016121879061359a565b60405180910390fd5b61219b838383612821565b6121a6600082611c2b565b6001600360008573ffffffffffffffffffffffffffffffffffffffff1673ffffffffffffffffffffffffffffffffffffffff16815260200190815260200160002060008282546121f69190613987565b925050819055506001600360008473ffffffffffffffffffffffffffffffffffffffff1673ffffffffffffffffffffffffffffffffffffffff168152602001908152602001600020600082825461224d9190613900565b92505081905550816002600083815260200190815260200160002060006101000a81548173ffffffffffffffffffffffffffffffffffffffff021916908373ffffffffffffffffffffffffffffffffffffffff160217905550808273ffffffffffffffffffffffffffffffffffffffff168473ffffffffffffffffffffffffffffffffffffffff167fddf252ad1be2c89b69c2b068fc378daa952ba7f163c4a11628f55a4df523b3ef60405160405180910390a461230c838383612826565b505050565b612319611c23565b73ffffffffffffffffffffffffffffffffffffffff166123376113df565b73ffffffffffffffffffffffffffffffffffffffff161461238d576040517f08c379a0000000000000000000000000000000000000000000000000000000008152600401612384906136fa565b60405180910390fd5b565b6000600660009054906101000a900473ffffffffffffffffffffffffffffffffffffffff16905081600660006101000a81548173ffffffffffffffffffffffffffffffffffffffff021916908373ffffffffffffffffffffffffffffffffffffffff1602179055508173ffffffffffffffffffffffffffffffffffffffff168173ffffffffffffffffffffffffffffffffffffffff167f8be0079c531659141344cd1fd0a4f28419497f9722a3daafe3b4186f6b6457e060405160405180910390a35050565b8173ffffffffffffffffffffffffffffffffffffffff168373ffffffffffffffffffffffffffffffffffffffff1614156124c4576040517f08c379a00000000000000000000000000000000000000000000000000000000081526004016124bb906135ba565b60405180910390fd5b80600560008573ffffffffffffffffffffffffffffffffffffffff1673ffffffffffffffffffffffffffffffffffffffff16815260200190815260200160002060008473ffffffffffffffffffffffffffffffffffffffff1673ffffffffffffffffffffffffffffffffffffffff16815260200190815260200160002060006101000a81548160ff0219169083151502179055508173ffffffffffffffffffffffffffffffffffffffff168373ffffffffffffffffffffffffffffffffffffffff167f17307eab39ab6107e8899845ad3d59bd9653f200f220920489ca2b5937696c31836040516125b591906133ca565b60405180910390a3505050565b6125cd8484846120aa565b6125d98484848461282b565b612618576040517f08c379a000000000000000000000000000000000000000000000000000000000815260040161260f906134ba565b60405180910390fd5b50505050565b60606040518060800160405280604481526020016142b260449139905090565b60606000821415612686576040518060400160405280600181526020017f3000000000000000000000000000000000000000000000000000000000000000815250905061279a565b600082905060005b600082146126b85780806126a190613b3a565b915050600a826126b19190613956565b915061268e565b60008167ffffffffffffffff8111156126d4576126d3613c9f565b5b6040519080825280601f01601f1916602001820160405280156127065781602001600182028036833780820191505090505b5090505b600085146127935760018261271f9190613987565b9150600a8561272e9190613b83565b603061273a9190613900565b60f81b8183815181106127505761274f613c70565b5b60200101907effffffffffffffffffffffffffffffffffffffffffffffffffffffffffffff1916908160001a905350600a8561278c9190613956565b945061270a565b8093505050505b919050565b6001816000016000828254019250508190555050565b60008073ffffffffffffffffffffffffffffffffffffffff166002600084815260200190815260200160002060009054906101000a900473ffffffffffffffffffffffffffffffffffffffff1673ffffffffffffffffffffffffffffffffffffffff1614159050919050565b505050565b505050565b600061284c8473ffffffffffffffffffffffffffffffffffffffff166129c2565b156129b5578373ffffffffffffffffffffffffffffffffffffffff1663150b7a02612875611c23565b8786866040518563ffffffff1660e01b8152600401612897949392919061337e565b602060405180830381600087803b1580156128b157600080fd5b505af19250505080156128e257506040513d601f19601f820116820180604052508101906128df9190612d61565b60015b612965573d8060008114612912576040519150601f19603f3d011682016040523d82523d6000602084013e612917565b606091505b5060008151141561295d576040517f08c379a0000000000000000000000000000000000000000000000000000000008152600401612954906134ba565b60405180910390fd5b805181602001fd5b63150b7a0260e01b7bffffffffffffffffffffffffffffffffffffffffffffffffffffffff1916817bffffffffffffffffffffffffffffffffffffffffffffffffffffffff1916149150506129ba565b600190505b949350505050565b6000808273ffffffffffffffffffffffffffffffffffffffff163b119050919050565b60006129f86129f384613855565b613830565b90508083825260208201905082856020860282011115612a1b57612a1a613cd3565b5b60005b85811015612a4b5781612a318882612b47565b845260208401935060208301925050600181019050612a1e565b5050509392505050565b6000612a68612a6384613881565b613830565b905082815260208101848484011115612a8457612a83613cd8565b5b612a8f848285613a6b565b509392505050565b600081359050612aa681614255565b92915050565b600082601f830112612ac157612ac0613cce565b5b8135612ad18482602086016129e5565b91505092915050565b600081359050612ae98161426c565b92915050565b600081359050612afe81614283565b92915050565b600081519050612b1381614283565b92915050565b600082601f830112612b2e57612b2d613cce565b5b8135612b3e848260208601612a55565b91505092915050565b600081359050612b568161429a565b92915050565b600081519050612b6b8161429a565b92915050565b600060208284031215612b8757612b86613ce2565b5b6000612b9584828501612a97565b91505092915050565b60008060408385031215612bb557612bb4613ce2565b5b6000612bc385828601612a97565b9250506020612bd485828601612a97565b9150509250929050565b600080600060608486031215612bf757612bf6613ce2565b5b6000612c0586828701612a97565b9350506020612c1686828701612a97565b9250506040612c2786828701612b47565b9150509250925092565b60008060008060808587031215612c4b57612c4a613ce2565b5b6000612c5987828801612a97565b9450506020612c6a87828801612a97565b9350506040612c7b87828801612b47565b925050606085013567ffffffffffffffff811115612c9c57612c9b613cdd565b5b612ca887828801612b19565b91505092959194509250565b60008060408385031215612ccb57612cca613ce2565b5b6000612cd985828601612a97565b9250506020612cea85828601612ada565b9150509250929050565b60008060408385031215612d0b57612d0a613ce2565b5b6000612d1985828601612a97565b9250506020612d2a85828601612b47565b9150509250929050565b600060208284031215612d4a57612d49613ce2565b5b6000612d5884828501612aef565b91505092915050565b600060208284031215612d7757612d76613ce2565b5b6000612d8584828501612b04565b91505092915050565b600060208284031215612da457612da3613ce2565b5b6000612db284828501612b47565b91505092915050565b600060208284031215612dd157612dd0613ce2565b5b6000612ddf84828501612b5c565b91505092915050565b60008060408385031215612dff57612dfe613ce2565b5b6000612e0d85828601612b47565b925050602083013567ffffffffffffffff811115612e2e57612e2d613cdd565b5b612e3a85828601612aac565b9150509250929050565b612e4d816139bb565b82525050565b612e5c816139cd565b82525050565b612e6b816139d9565b82525050565b6000612e7c826138b2565b612e8681856138c8565b9350612e96818560208601613a7a565b612e9f81613ce7565b840191505092915050565b6000612eb5826138bd565b612ebf81856138e4565b9350612ecf818560208601613a7a565b612ed881613ce7565b840191505092915050565b6000612eee826138bd565b612ef881856138f5565b9350612f08818560208601613a7a565b80840191505092915050565b6000612f216018836138e4565b9150612f2c82613cf8565b602082019050919050565b6000612f446018836138e4565b9150612f4f82613d21565b602082019050919050565b6000612f676016836138e4565b9150612f7282613d4a565b602082019050919050565b6000612f8a6032836138e4565b9150612f9582613d73565b604082019050919050565b6000612fad6026836138e4565b9150612fb882613dc2565b604082019050919050565b6000612fd06025836138e4565b9150612fdb82613e11565b604082019050919050565b6000612ff3601c836138e4565b9150612ffe82613e60565b602082019050919050565b60006130166013836138e4565b915061302182613e89565b602082019050919050565b6000613039601d836138e4565b915061304482613eb2565b602082019050919050565b600061305c6011836138e4565b915061306782613edb565b602082019050919050565b600061307f6024836138e4565b915061308a82613f04565b604082019050919050565b60006130a26019836138e4565b91506130ad82613f53565b602082019050919050565b60006130c56010836138e4565b91506130d082613f7c565b602082019050919050565b60006130e86012836138e4565b91506130f382613fa5565b602082019050919050565b600061310b6013836138e4565b915061311682613fce565b602082019050919050565b600061312e6016836138e4565b915061313982613ff7565b602082019050919050565b60006131516029836138e4565b915061315c82614020565b604082019050919050565b6000613174603e836138e4565b915061317f8261406f565b604082019050919050565b60006131976020836138e4565b91506131a2826140be565b602082019050919050565b60006131ba6010836138e4565b91506131c5826140e7565b602082019050919050565b60006131dd6014836138e4565b91506131e882614110565b602082019050919050565b60006132006020836138e4565b915061320b82614139565b602082019050919050565b60006132236018836138e4565b915061322e82614162565b602082019050919050565b60006132466021836138e4565b91506132518261418b565b604082019050919050565b60006132696000836138d9565b9150613274826141da565b600082019050919050565b600061328c601c836138e4565b9150613297826141dd565b602082019050919050565b60006132af602e836138e4565b91506132ba82614206565b604082019050919050565b6132ce81613a0f565b82525050565b6132dd81613a3d565b82525050565b6132ec81613a47565b82525050565b6132fb81613a57565b82525050565b600061330d8285612ee3565b91506133198284612ee3565b91508190509392505050565b60006133308261325c565b9150819050919050565b600060208201905061334f6000830184612e44565b92915050565b600060408201905061336a6000830185612e44565b6133776020830184612e44565b9392505050565b60006080820190506133936000830187612e44565b6133a06020830186612e44565b6133ad60408301856132d4565b81810360608301526133bf8184612e71565b905095945050505050565b60006020820190506133df6000830184612e53565b92915050565b600060a0820190506133fa6000830188612e62565b61340760208301876132f2565b61341460408301866132c5565b61342160608301856132e3565b61342e60808301846132e3565b9695505050505050565b600060208201905081810360008301526134528184612eaa565b905092915050565b6000602082019050818103600083015261347381612f14565b9050919050565b6000602082019050818103600083015261349381612f37565b9050919050565b600060208201905081810360008301526134b381612f5a565b9050919050565b600060208201905081810360008301526134d381612f7d565b9050919050565b600060208201905081810360008301526134f381612fa0565b9050919050565b6000602082019050818103600083015261351381612fc3565b9050919050565b6000602082019050818103600083015261353381612fe6565b9050919050565b6000602082019050818103600083015261355381613009565b9050919050565b600060208201905081810360008301526135738161302c565b9050919050565b600060208201905081810360008301526135938161304f565b9050919050565b600060208201905081810360008301526135b381613072565b9050919050565b600060208201905081810360008301526135d381613095565b9050919050565b600060208201905081810360008301526135f3816130b8565b9050919050565b60006020820190508181036000830152613613816130db565b9050919050565b60006020820190508181036000830152613633816130fe565b9050919050565b6000602082019050818103600083015261365381613121565b9050919050565b6000602082019050818103600083015261367381613144565b9050919050565b6000602082019050818103600083015261369381613167565b9050919050565b600060208201905081810360008301526136b38161318a565b9050919050565b600060208201905081810360008301526136d3816131ad565b9050919050565b600060208201905081810360008301526136f3816131d0565b9050919050565b60006020820190508181036000830152613713816131f3565b9050919050565b6000602082019050818103600083015261373381613216565b9050919050565b6000602082019050818103600083015261375381613239565b9050919050565b600060208201905081810360008301526137738161327f565b9050919050565b60006020820190508181036000830152613793816132a2565b9050919050565b60006020820190506137af60008301846132c5565b92915050565b60006020820190506137ca60008301846132d4565b92915050565b60006080820190506137e560008301876132d4565b6137f260208301866132d4565b6137ff60408301856132d4565b61380c60608301846132d4565b95945050505050565b600060208201905061382a60008301846132e3565b92915050565b600061383a61384b565b90506138468282613b09565b919050565b6000604051905090565b600067ffffffffffffffff8211156138705761386f613c9f565b5b602082029050602081019050919050565b600067ffffffffffffffff82111561389c5761389b613c9f565b5b6138a582613ce7565b9050602081019050919050565b600081519050919050565b600081519050919050565b600082825260208201905092915050565b600081905092915050565b600082825260208201905092915050565b600081905092915050565b600061390b82613a3d565b915061391683613a3d565b9250827fffffffffffffffffffffffffffffffffffffffffffffffffffffffffffffffff0382111561394b5761394a613bb4565b5b828201905092915050565b600061396182613a3d565b915061396c83613a3d565b92508261397c5761397b613be3565b5b828204905092915050565b600061399282613a3d565b915061399d83613a3d565b9250828210156139b0576139af613bb4565b5b828203905092915050565b60006139c682613a1d565b9050919050565b60008115159050919050565b6000819050919050565b60007fffffffff0000000000000000000000000000000000000000000000000000000082169050919050565b600061ffff82169050919050565b600073ffffffffffffffffffffffffffffffffffffffff82169050919050565b6000819050919050565b600063ffffffff82169050919050565b600067ffffffffffffffff82169050919050565b82818337600083830152505050565b60005b83811015613a98578082015181840152602081019050613a7d565b83811115613aa7576000848401525b50505050565b6000613ab882613a3d565b91506000821415613acc57613acb613bb4565b5b600182039050919050565b60006002820490506001821680613aef57607f821691505b60208210811415613b0357613b02613c12565b5b50919050565b613b1282613ce7565b810181811067ffffffffffffffff82111715613b3157613b30613c9f565b5b80604052505050565b6000613b4582613a3d565b91507fffffffffffffffffffffffffffffffffffffffffffffffffffffffffffffffff821415613b7857613b77613bb4565b5b600182019050919050565b6000613b8e82613a3d565b9150613b9983613a3d565b925082613ba957613ba8613be3565b5b828206905092915050565b7f4e487b7100000000000000000000000000000000000000000000000000000000600052601160045260246000fd5b7f4e487b7100000000000000000000000000000000000000000000000000000000600052601260045260246000fd5b7f4e487b7100000000000000000000000000000000000000000000000000000000600052602260045260246000fd5b7f4e487b7100000000000000000000000000000000000000000000000000000000600052603160045260246000fd5b7f4e487b7100000000000000000000000000000000000000000000000000000000600052603260045260246000fd5b7f4e487b7100000000000000000000000000000000000000000000000000000000600052604160045260246000fd5b600080fd5b600080fd5b600080fd5b600080fd5b600080fd5b6000601f19601f8301169050919050565b7f72616e646f6d20616c7265616479207265717565737465640000000000000000600082015250565b7f50726f636565647320616c726561647920636c61696d65640000000000000000600082015250565b7f556e7375636365737366756c20696e207061796f757400000000000000000000600082015250565b7f4552433732313a207472616e7366657220746f206e6f6e20455243373231526560008201527f63656976657220696d706c656d656e7465720000000000000000000000000000602082015250565b7f4f776e61626c653a206e6577206f776e657220697320746865207a65726f206160008201527f6464726573730000000000000000000000000000000000000000000000000000602082015250565b7f4552433732313a207472616e736665722066726f6d20696e636f72726563742060008201527f6f776e6572000000000000000000000000000000000000000000000000000000602082015250565b7f4552433732313a20746f6b656e20616c7265616479206d696e74656400000000600082015250565b7f656e74726f707920616c72656164792073657400000000000000000000000000600082015250565b7f4164647265737320646f6573206e6f74206f776e2061207469636b6574000000600082015250565b7f526166666c65207374696c6c206f70656e000000000000000000000000000000600082015250565b7f4552433732313a207472616e7366657220746f20746865207a65726f2061646460008201527f7265737300000000000000000000000000000000000000000000000000000000602082015250565b7f4552433732313a20617070726f766520746f2063616c6c657200000000000000600082015250565b7f526166666c652068617320656e64656400000000000000000000000000000000600082015250565b7f456e74726f7079206973206e6f74207365740000000000000000000000000000600082015250565b7f41646472657373206f776e73207469636b657400000000000000000000000000600082015250565b7f72657175657374496420646f206e6f74206d6174636800000000000000000000600082015250565b7f4552433732313a2061646472657373207a65726f206973206e6f74206120766160008201527f6c6964206f776e65720000000000000000000000000000000000000000000000602082015250565b7f4552433732313a20617070726f76652063616c6c6572206973206e6f7420746f60008201527f6b656e206f776e6572206e6f7220617070726f76656420666f7220616c6c0000602082015250565b7f4552433732313a206d696e7420746f20746865207a65726f2061646472657373600082015250565b7f416c6c207469636b65747320736f6c6400000000000000000000000000000000600082015250565b7f496e73756666696369656e74207061796d656e74000000000000000000000000600082015250565b7f4f776e61626c653a2063616c6c6572206973206e6f7420746865206f776e6572600082015250565b7f4552433732313a20696e76616c696420746f6b656e2049440000000000000000600082015250565b7f4552433732313a20617070726f76616c20746f2063757272656e74206f776e6560008201527f7200000000000000000000000000000000000000000000000000000000000000602082015250565b50565b7f4d617820616c6c6f77207065722061646472657373206d696e74656400000000600082015250565b7f4552433732313a2063616c6c6572206973206e6f7420746f6b656e206f776e6560008201527f72206e6f7220617070726f766564000000000000000000000000000000000000602082015250565b61425e816139bb565b811461426957600080fd5b50565b614275816139cd565b811461428057600080fd5b50565b61428c816139e3565b811461429757600080fd5b50565b6142a381613a3d565b81146142ae57600080fd5b5056fe68747470733a2f2f697066732e696f2f697066732f516d5178446a45686e5950365141744c52794c56394e37646e316b4469677a3769576e783570736d7958717933352fa2646970667358221220b5d360eab68da1532d819d8092234d933badb144b2f214133270eda6783cc3b664736f6c63430008070033",
  "devdoc": {
    "author": "Rloot",
    "events": {
      "Minted(address,uint256)": {
        "params": {
          "tokenId": "Number of the ticket sold",
          "user": "Address of raffle participant"
        }
      },
      "TicketSold(address,uint256)": {
        "params": {
          "ticketId": "Number of the ticket sold",
          "user": "Address of raffle participant"
        }
      }
    },
    "kind": "dev",
    "methods": {
      "approve(address,uint256)": {
        "details": "See {IERC721-approve}."
      },
      "balanceOf(address)": {
        "details": "See {IERC721-balanceOf}."
      },
      "constructor": {
        "params": {
          "_AVAILABLE_SUPPLY": "total NFTs to sell",
          "_MINT_COST": "in wei per ticket"
        }
      },
      "getApproved(uint256)": {
        "details": "See {IERC721-getApproved}."
      },
      "isApprovedForAll(address,address)": {
        "details": "See {IERC721-isApprovedForAll}."
      },
      "name()": {
        "details": "See {IERC721Metadata-name}."
      },
      "owner()": {
        "details": "Returns the address of the current owner."
      },
      "ownerOf(uint256)": {
        "details": "See {IERC721-ownerOf}."
      },
      "renounceOwnership()": {
        "details": "Leaves the contract without owner. It will not be possible to call `onlyOwner` functions anymore. Can only be called by the current owner. NOTE: Renouncing ownership will leave the contract without an owner, thereby removing any functionality that is only available to the owner."
      },
      "safeTransferFrom(address,address,uint256)": {
        "details": "See {IERC721-safeTransferFrom}."
      },
      "safeTransferFrom(address,address,uint256,bytes)": {
        "details": "See {IERC721-safeTransferFrom}."
      },
      "setApprovalForAll(address,bool)": {
        "details": "See {IERC721-setApprovalForAll}."
      },
      "supportsInterface(bytes4)": {
        "details": "See {IERC165-supportsInterface}."
      },
      "symbol()": {
        "details": "See {IERC721Metadata-symbol}."
      },
      "tokenURI(uint256)": {
        "details": "See {IERC721Metadata-tokenURI}."
      },
      "transferFrom(address,address,uint256)": {
        "details": "See {IERC721-transferFrom}."
      },
      "transferOwnership(address)": {
        "details": "Transfers ownership of the contract to a new account (`newOwner`). Can only be called by the current owner."
      }
    },
    "title": "ShuffleOne",
    "version": 1
  },
  "userdoc": {
    "events": {
      "Minted(address,uint256)": {
        "notice": "Emitted after a successful mint "
      },
      "TicketSold(address,uint256)": {
        "notice": "Emitted after a successful ticket sell "
      }
    },
    "kind": "user",
    "methods": {
      "AVAILABLE_SUPPLY()": {
        "notice": "Avalible NFTs to be minted"
      },
      "MAX_PER_ADDRESS()": {
        "notice": "Maximum tickets per address"
      },
      "MINT_COST()": {
        "notice": "Minimum cost for ticket"
      },
      "NFTsId(uint256)": {
        "notice": "Array of NFTs ID to be minted "
      },
      "RAFFLE_FINALIZATION_BLOCKNUMBER()": {
        "notice": "Blocknumber raffle ends at."
      },
      "buyTicket()": {
        "notice": "Enters raffle "
      },
      "constructor": {
        "notice": "Creates a new NFT distribution contract"
      },
      "entropy()": {
        "notice": "Source of entropy"
      },
      "getNFTsIdLength()": {
        "notice": "Get the lengths of the NFTsIds array"
      },
      "getSoldTickets()": {
        "notice": "Get total numbers of tickets sold "
      },
      "mint()": {
        "notice": "Generate rand index for the NFTid, mint NFT and remove it from array "
      },
      "participants(address)": {
        "notice": "Keep track of participants "
      },
      "proceedsClaimed()": {
        "notice": "Owner has claimed raffle proceeds"
      },
      "withdrawRaffleProceeds()": {
        "notice": "Allows contract owner to withdraw proceeds of tickets"
      }
    },
    "notice": "ERC721 randomized distribution",
    "version": 1
  },
  "storageLayout": {
    "storage": [
      {
        "astId": 285,
        "contract": "contracts/ShuffleOne.sol:ShuffleOne",
        "label": "_name",
        "offset": 0,
        "slot": "0",
        "type": "t_string_storage"
      },
      {
        "astId": 287,
        "contract": "contracts/ShuffleOne.sol:ShuffleOne",
        "label": "_symbol",
        "offset": 0,
        "slot": "1",
        "type": "t_string_storage"
      },
      {
        "astId": 291,
        "contract": "contracts/ShuffleOne.sol:ShuffleOne",
        "label": "_owners",
        "offset": 0,
        "slot": "2",
        "type": "t_mapping(t_uint256,t_address)"
      },
      {
        "astId": 295,
        "contract": "contracts/ShuffleOne.sol:ShuffleOne",
        "label": "_balances",
        "offset": 0,
        "slot": "3",
        "type": "t_mapping(t_address,t_uint256)"
      },
      {
        "astId": 299,
        "contract": "contracts/ShuffleOne.sol:ShuffleOne",
        "label": "_tokenApprovals",
        "offset": 0,
        "slot": "4",
        "type": "t_mapping(t_uint256,t_address)"
      },
      {
        "astId": 305,
        "contract": "contracts/ShuffleOne.sol:ShuffleOne",
        "label": "_operatorApprovals",
        "offset": 0,
        "slot": "5",
        "type": "t_mapping(t_address,t_mapping(t_address,t_bool))"
      },
      {
        "astId": 154,
        "contract": "contracts/ShuffleOne.sol:ShuffleOne",
        "label": "_owner",
        "offset": 0,
        "slot": "6",
        "type": "t_address"
      },
      {
        "astId": 1986,
        "contract": "contracts/ShuffleOne.sol:ShuffleOne",
        "label": "participants",
        "offset": 0,
        "slot": "7",
        "type": "t_mapping(t_address,t_struct(Participant)1967_storage)"
      },
      {
        "astId": 1990,
        "contract": "contracts/ShuffleOne.sol:ShuffleOne",
        "label": "NFTsId",
        "offset": 0,
        "slot": "8",
        "type": "t_array(t_uint256)dyn_storage"
      },
      {
        "astId": 1993,
        "contract": "contracts/ShuffleOne.sol:ShuffleOne",
        "label": "entropy",
        "offset": 0,
        "slot": "9",
        "type": "t_uint256"
      },
      {
        "astId": 1997,
        "contract": "contracts/ShuffleOne.sol:ShuffleOne",
        "label": "proceedsClaimed",
        "offset": 0,
        "slot": "10",
        "type": "t_bool"
      },
      {
        "astId": 2001,
        "contract": "contracts/ShuffleOne.sol:ShuffleOne",
        "label": "_soldTicketsCounter",
        "offset": 0,
        "slot": "11",
        "type": "t_struct(Counter)1610_storage"
      },
      {
        "astId": 2007,
        "contract": "contracts/ShuffleOne.sol:ShuffleOne",
        "label": "_requestId",
        "offset": 0,
        "slot": "12",
        "type": "t_uint256"
      }
    ],
    "types": {
      "t_address": {
        "encoding": "inplace",
        "label": "address",
        "numberOfBytes": "20"
      },
      "t_array(t_uint256)dyn_storage": {
        "base": "t_uint256",
        "encoding": "dynamic_array",
        "label": "uint256[]",
        "numberOfBytes": "32"
      },
      "t_bool": {
        "encoding": "inplace",
        "label": "bool",
        "numberOfBytes": "1"
      },
      "t_mapping(t_address,t_bool)": {
        "encoding": "mapping",
        "key": "t_address",
        "label": "mapping(address => bool)",
        "numberOfBytes": "32",
        "value": "t_bool"
      },
      "t_mapping(t_address,t_mapping(t_address,t_bool))": {
        "encoding": "mapping",
        "key": "t_address",
        "label": "mapping(address => mapping(address => bool))",
        "numberOfBytes": "32",
        "value": "t_mapping(t_address,t_bool)"
      },
      "t_mapping(t_address,t_struct(Participant)1967_storage)": {
        "encoding": "mapping",
        "key": "t_address",
        "label": "mapping(address => struct ShuffleOne.Participant)",
        "numberOfBytes": "32",
        "value": "t_struct(Participant)1967_storage"
      },
      "t_mapping(t_address,t_uint256)": {
        "encoding": "mapping",
        "key": "t_address",
        "label": "mapping(address => uint256)",
        "numberOfBytes": "32",
        "value": "t_uint256"
      },
      "t_mapping(t_uint256,t_address)": {
        "encoding": "mapping",
        "key": "t_uint256",
        "label": "mapping(uint256 => address)",
        "numberOfBytes": "32",
        "value": "t_address"
      },
      "t_string_storage": {
        "encoding": "bytes",
        "label": "string",
        "numberOfBytes": "32"
      },
      "t_struct(Counter)1610_storage": {
        "encoding": "inplace",
        "label": "struct Counters.Counter",
        "members": [
          {
            "astId": 1609,
            "contract": "contracts/ShuffleOne.sol:ShuffleOne",
            "label": "_value",
            "offset": 0,
            "slot": "0",
            "type": "t_uint256"
          }
        ],
        "numberOfBytes": "32"
      },
      "t_struct(Participant)1967_storage": {
        "encoding": "inplace",
        "label": "struct ShuffleOne.Participant",
        "members": [
          {
            "astId": 1960,
            "contract": "contracts/ShuffleOne.sol:ShuffleOne",
            "label": "tokenId",
            "offset": 0,
            "slot": "0",
            "type": "t_uint256"
          },
          {
            "astId": 1962,
            "contract": "contracts/ShuffleOne.sol:ShuffleOne",
            "label": "randomIndex",
            "offset": 0,
            "slot": "1",
            "type": "t_uint256"
          },
          {
            "astId": 1964,
            "contract": "contracts/ShuffleOne.sol:ShuffleOne",
            "label": "minted",
            "offset": 0,
            "slot": "2",
            "type": "t_uint256"
          },
          {
            "astId": 1966,
            "contract": "contracts/ShuffleOne.sol:ShuffleOne",
            "label": "ownedTickets",
            "offset": 0,
            "slot": "3",
            "type": "t_uint256"
          }
        ],
        "numberOfBytes": "128"
      },
      "t_uint256": {
        "encoding": "inplace",
        "label": "uint256",
        "numberOfBytes": "32"
      }
    }
  }
}