{
  "address": "0x7ae90B0c59D120A9F3193a5f2368837353e72459",
  "abi": [
    {
      "inputs": [
        {
          "internalType": "address",
          "name": "vrfCoordinator",
          "type": "address"
        },
        {
          "internalType": "bytes32",
          "name": "keyHash",
          "type": "bytes32"
        },
        {
          "internalType": "uint64",
          "name": "subId",
          "type": "uint64"
        },
        {
          "internalType": "uint256",
          "name": "_TICKETS_AMOUNT",
          "type": "uint256"
        },
        {
          "internalType": "uint256",
          "name": "_MINT_COST",
          "type": "uint256"
        },
        {
          "internalType": "uint256",
          "name": "_FINALIZATION_BLOCKNUMBER",
          "type": "uint256"
        }
      ],
      "stateMutability": "nonpayable",
      "type": "constructor"
    },
    {
      "inputs": [],
      "name": "EntropyAlreadySet",
      "type": "error"
    },
    {
      "inputs": [],
      "name": "EntropyNotSet",
      "type": "error"
    },
    {
      "inputs": [],
      "name": "InvalidRequestId",
      "type": "error"
    },
    {
      "inputs": [],
      "name": "MaxTicketsPerAddress",
      "type": "error"
    },
    {
      "inputs": [],
      "name": "NoRedeemableTickets",
      "type": "error"
    },
    {
      "inputs": [],
      "name": "NotEnoughEther",
      "type": "error"
    },
    {
      "inputs": [
        {
          "internalType": "address",
          "name": "have",
          "type": "address"
        },
        {
          "internalType": "address",
          "name": "want",
          "type": "address"
        }
      ],
      "name": "OnlyCoordinatorCanFulfill",
      "type": "error"
    },
    {
      "inputs": [],
      "name": "RaffleHasEnded",
      "type": "error"
    },
    {
      "inputs": [],
      "name": "RaffleStillOpen",
      "type": "error"
    },
    {
      "inputs": [],
      "name": "RandomnessAlreadyRequested",
      "type": "error"
    },
    {
      "inputs": [],
      "name": "TicketsSoldOut",
      "type": "error"
    },
    {
      "anonymous": false,
      "inputs": [
        {
          "indexed": true,
          "internalType": "address",
          "name": "owner",
          "type": "address"
        },
        {
          "indexed": true,
          "internalType": "address",
          "name": "approved",
          "type": "address"
        },
        {
          "indexed": true,
          "internalType": "uint256",
          "name": "tokenId",
          "type": "uint256"
        }
      ],
      "name": "Approval",
      "type": "event"
    },
    {
      "anonymous": false,
      "inputs": [
        {
          "indexed": true,
          "internalType": "address",
          "name": "owner",
          "type": "address"
        },
        {
          "indexed": true,
          "internalType": "address",
          "name": "operator",
          "type": "address"
        },
        {
          "indexed": false,
          "internalType": "bool",
          "name": "approved",
          "type": "bool"
        }
      ],
      "name": "ApprovalForAll",
      "type": "event"
    },
    {
      "anonymous": false,
      "inputs": [
        {
          "indexed": true,
          "internalType": "address",
          "name": "user",
          "type": "address"
        },
        {
          "indexed": false,
          "internalType": "uint256",
          "name": "tokenId",
          "type": "uint256"
        }
      ],
      "name": "Minted",
      "type": "event"
    },
    {
      "anonymous": false,
      "inputs": [
        {
          "indexed": true,
          "internalType": "address",
          "name": "previousOwner",
          "type": "address"
        },
        {
          "indexed": true,
          "internalType": "address",
          "name": "newOwner",
          "type": "address"
        }
      ],
      "name": "OwnershipTransferred",
      "type": "event"
    },
    {
      "anonymous": false,
      "inputs": [
        {
          "indexed": true,
          "internalType": "address",
          "name": "user",
          "type": "address"
        },
        {
          "indexed": false,
          "internalType": "uint256",
          "name": "ticketId",
          "type": "uint256"
        }
      ],
      "name": "TicketSold",
      "type": "event"
    },
    {
      "anonymous": false,
      "inputs": [
        {
          "indexed": true,
          "internalType": "address",
          "name": "from",
          "type": "address"
        },
        {
          "indexed": true,
          "internalType": "address",
          "name": "to",
          "type": "address"
        },
        {
          "indexed": true,
          "internalType": "uint256",
          "name": "tokenId",
          "type": "uint256"
        }
      ],
      "name": "Transfer",
      "type": "event"
    },
    {
      "inputs": [],
      "name": "CALLBACK_GAS_LIMIT",
      "outputs": [
        {
          "internalType": "uint32",
          "name": "",
          "type": "uint32"
        }
      ],
      "stateMutability": "view",
      "type": "function"
    },
    {
      "inputs": [],
      "name": "FINALIZATION_BLOCKNUMBER",
      "outputs": [
        {
          "internalType": "uint256",
          "name": "",
          "type": "uint256"
        }
      ],
      "stateMutability": "view",
      "type": "function"
    },
    {
      "inputs": [],
      "name": "MAX_PER_ADDRESS",
      "outputs": [
        {
          "internalType": "uint256",
          "name": "",
          "type": "uint256"
        }
      ],
      "stateMutability": "view",
      "type": "function"
    },
    {
      "inputs": [],
      "name": "MINIMUM_CONFIRMATIONS",
      "outputs": [
        {
          "internalType": "uint16",
          "name": "",
          "type": "uint16"
        }
      ],
      "stateMutability": "view",
      "type": "function"
    },
    {
      "inputs": [],
      "name": "MINT_COST",
      "outputs": [
        {
          "internalType": "uint256",
          "name": "",
          "type": "uint256"
        }
      ],
      "stateMutability": "view",
      "type": "function"
    },
    {
      "inputs": [
        {
          "internalType": "uint256",
          "name": "",
          "type": "uint256"
        }
      ],
      "name": "NFTsId",
      "outputs": [
        {
          "internalType": "uint256",
          "name": "",
          "type": "uint256"
        }
      ],
      "stateMutability": "view",
      "type": "function"
    },
    {
      "inputs": [],
      "name": "TICKETS_AMOUNT",
      "outputs": [
        {
          "internalType": "uint256",
          "name": "",
          "type": "uint256"
        }
      ],
      "stateMutability": "view",
      "type": "function"
    },
    {
      "inputs": [],
      "name": "WORDS_AMOUNT",
      "outputs": [
        {
          "internalType": "uint32",
          "name": "",
          "type": "uint32"
        }
      ],
      "stateMutability": "view",
      "type": "function"
    },
    {
      "inputs": [],
      "name": "_entropy",
      "outputs": [
        {
          "internalType": "uint256",
          "name": "",
          "type": "uint256"
        }
      ],
      "stateMutability": "view",
      "type": "function"
    },
    {
      "inputs": [
        {
          "internalType": "address",
          "name": "to",
          "type": "address"
        },
        {
          "internalType": "uint256",
          "name": "tokenId",
          "type": "uint256"
        }
      ],
      "name": "approve",
      "outputs": [],
      "stateMutability": "nonpayable",
      "type": "function"
    },
    {
      "inputs": [
        {
          "internalType": "address",
          "name": "owner",
          "type": "address"
        }
      ],
      "name": "balanceOf",
      "outputs": [
        {
          "internalType": "uint256",
          "name": "",
          "type": "uint256"
        }
      ],
      "stateMutability": "view",
      "type": "function"
    },
    {
      "inputs": [],
      "name": "buyTicket",
      "outputs": [],
      "stateMutability": "payable",
      "type": "function"
    },
    {
      "inputs": [
        {
          "internalType": "uint256",
          "name": "tokenId",
          "type": "uint256"
        }
      ],
      "name": "getApproved",
      "outputs": [
        {
          "internalType": "address",
          "name": "",
          "type": "address"
        }
      ],
      "stateMutability": "view",
      "type": "function"
    },
    {
      "inputs": [],
      "name": "getRequestId",
      "outputs": [
        {
          "internalType": "uint256",
          "name": "",
          "type": "uint256"
        }
      ],
      "stateMutability": "view",
      "type": "function"
    },
    {
      "inputs": [],
      "name": "getSoldTickets",
      "outputs": [
        {
          "internalType": "uint256",
          "name": "",
          "type": "uint256"
        }
      ],
      "stateMutability": "view",
      "type": "function"
    },
    {
      "inputs": [],
      "name": "getStatus",
      "outputs": [
        {
          "internalType": "enum ShuffleOne.Status",
          "name": "status",
          "type": "uint8"
        }
      ],
      "stateMutability": "view",
      "type": "function"
    },
    {
      "inputs": [
        {
          "internalType": "address",
          "name": "owner",
          "type": "address"
        },
        {
          "internalType": "address",
          "name": "operator",
          "type": "address"
        }
      ],
      "name": "isApprovedForAll",
      "outputs": [
        {
          "internalType": "bool",
          "name": "",
          "type": "bool"
        }
      ],
      "stateMutability": "view",
      "type": "function"
    },
    {
      "inputs": [],
      "name": "mint",
      "outputs": [],
      "stateMutability": "nonpayable",
      "type": "function"
    },
    {
      "inputs": [],
      "name": "name",
      "outputs": [
        {
          "internalType": "string",
          "name": "",
          "type": "string"
        }
      ],
      "stateMutability": "view",
      "type": "function"
    },
    {
      "inputs": [],
      "name": "owner",
      "outputs": [
        {
          "internalType": "address",
          "name": "",
          "type": "address"
        }
      ],
      "stateMutability": "view",
      "type": "function"
    },
    {
      "inputs": [
        {
          "internalType": "uint256",
          "name": "tokenId",
          "type": "uint256"
        }
      ],
      "name": "ownerOf",
      "outputs": [
        {
          "internalType": "address",
          "name": "",
          "type": "address"
        }
      ],
      "stateMutability": "view",
      "type": "function"
    },
    {
      "inputs": [
        {
          "internalType": "address",
          "name": "",
          "type": "address"
        }
      ],
      "name": "participants",
      "outputs": [
        {
          "internalType": "uint40",
          "name": "timestamp",
          "type": "uint40"
        },
        {
          "internalType": "uint32",
          "name": "redeemableTickets",
          "type": "uint32"
        }
      ],
      "stateMutability": "view",
      "type": "function"
    },
    {
      "inputs": [],
      "name": "proceedsClaimed",
      "outputs": [
        {
          "internalType": "bool",
          "name": "",
          "type": "bool"
        }
      ],
      "stateMutability": "view",
      "type": "function"
    },
    {
      "inputs": [
        {
          "internalType": "uint256",
          "name": "requestId",
          "type": "uint256"
        },
        {
          "internalType": "uint256[]",
          "name": "randomWords",
          "type": "uint256[]"
        }
      ],
      "name": "rawFulfillRandomWords",
      "outputs": [],
      "stateMutability": "nonpayable",
      "type": "function"
    },
    {
      "inputs": [],
      "name": "renounceOwnership",
      "outputs": [],
      "stateMutability": "nonpayable",
      "type": "function"
    },
    {
      "inputs": [],
      "name": "requestRandomness",
      "outputs": [],
      "stateMutability": "nonpayable",
      "type": "function"
    },
    {
      "inputs": [
        {
          "internalType": "address",
          "name": "from",
          "type": "address"
        },
        {
          "internalType": "address",
          "name": "to",
          "type": "address"
        },
        {
          "internalType": "uint256",
          "name": "tokenId",
          "type": "uint256"
        }
      ],
      "name": "safeTransferFrom",
      "outputs": [],
      "stateMutability": "nonpayable",
      "type": "function"
    },
    {
      "inputs": [
        {
          "internalType": "address",
          "name": "from",
          "type": "address"
        },
        {
          "internalType": "address",
          "name": "to",
          "type": "address"
        },
        {
          "internalType": "uint256",
          "name": "tokenId",
          "type": "uint256"
        },
        {
          "internalType": "bytes",
          "name": "data",
          "type": "bytes"
        }
      ],
      "name": "safeTransferFrom",
      "outputs": [],
      "stateMutability": "nonpayable",
      "type": "function"
    },
    {
      "inputs": [
        {
          "internalType": "address",
          "name": "operator",
          "type": "address"
        },
        {
          "internalType": "bool",
          "name": "approved",
          "type": "bool"
        }
      ],
      "name": "setApprovalForAll",
      "outputs": [],
      "stateMutability": "nonpayable",
      "type": "function"
    },
    {
      "inputs": [
        {
          "internalType": "bytes4",
          "name": "interfaceId",
          "type": "bytes4"
        }
      ],
      "name": "supportsInterface",
      "outputs": [
        {
          "internalType": "bool",
          "name": "",
          "type": "bool"
        }
      ],
      "stateMutability": "view",
      "type": "function"
    },
    {
      "inputs": [],
      "name": "symbol",
      "outputs": [
        {
          "internalType": "string",
          "name": "",
          "type": "string"
        }
      ],
      "stateMutability": "view",
      "type": "function"
    },
    {
      "inputs": [
        {
          "internalType": "uint256",
          "name": "",
          "type": "uint256"
        }
      ],
      "name": "tickets",
      "outputs": [
        {
          "internalType": "address",
          "name": "",
          "type": "address"
        }
      ],
      "stateMutability": "view",
      "type": "function"
    },
    {
      "inputs": [
        {
          "internalType": "uint256",
          "name": "tokenId",
          "type": "uint256"
        }
      ],
      "name": "tokenURI",
      "outputs": [
        {
          "internalType": "string",
          "name": "",
          "type": "string"
        }
      ],
      "stateMutability": "view",
      "type": "function"
    },
    {
      "inputs": [
        {
          "internalType": "address",
          "name": "from",
          "type": "address"
        },
        {
          "internalType": "address",
          "name": "to",
          "type": "address"
        },
        {
          "internalType": "uint256",
          "name": "tokenId",
          "type": "uint256"
        }
      ],
      "name": "transferFrom",
      "outputs": [],
      "stateMutability": "nonpayable",
      "type": "function"
    },
    {
      "inputs": [
        {
          "internalType": "address",
          "name": "newOwner",
          "type": "address"
        }
      ],
      "name": "transferOwnership",
      "outputs": [],
      "stateMutability": "nonpayable",
      "type": "function"
    },
    {
      "inputs": [
        {
          "internalType": "address",
          "name": "to",
          "type": "address"
        }
      ],
      "name": "withdrawTo",
      "outputs": [],
      "stateMutability": "nonpayable",
      "type": "function"
    }
  ],
  "transactionHash": "0xe8cca248ee1b8d95e144de4ed8aeed9475d40c81381c4d5fbe695f5b5ce0b3d4",
  "args": [
    "0xe43DE21c6EB905D269523DbB12Db9D5d1Bc585f9",
    "0xd89b2bf150e3b9e13446986e571fb9cab24b13cea0a43ea20a6049a85cc807cc",
    "2",
    5,
    "100000000000000000",
    1000
  ],
  "numDeployments": 2,
  "solcInputHash": "6e969d957b3f12fdf04a765d6434af2e",
  "bytecode": "0x6101806040526001610100908152506000600b60006101000a81548160ff0219169083151502179055503480156200003657600080fd5b50604051620043693803806200436983398181016040528101906200005c9190620003c1565b6040518060400160405280600a81526020017f52616e646f6d204e4654000000000000000000000000000000000000000000008152506040518060400160405280600481526020017f724e465400000000000000000000000000000000000000000000000000000000815250878073ffffffffffffffffffffffffffffffffffffffff1660808173ffffffffffffffffffffffffffffffffffffffff1660601b8152505050816000908051906020019062000119929190620002b5565b50806001908051906020019062000132929190620002b5565b5050506200015562000149620001e760201b60201c565b620001ef60201b60201c565b8260c081815250508160e0818152505080436200017391906200045d565b60a081815250508461012081815250508367ffffffffffffffff166101408167ffffffffffffffff1660c01b815250508573ffffffffffffffffffffffffffffffffffffffff166101608173ffffffffffffffffffffffffffffffffffffffff1660601b8152505050505050505062000617565b600033905090565b6000600660009054906101000a900473ffffffffffffffffffffffffffffffffffffffff16905081600660006101000a81548173ffffffffffffffffffffffffffffffffffffffff021916908373ffffffffffffffffffffffffffffffffffffffff1602179055508173ffffffffffffffffffffffffffffffffffffffff168173ffffffffffffffffffffffffffffffffffffffff167f8be0079c531659141344cd1fd0a4f28419497f9722a3daafe3b4186f6b6457e060405160405180910390a35050565b828054620002c39062000516565b90600052602060002090601f016020900481019282620002e7576000855562000333565b82601f106200030257805160ff191683800117855562000333565b8280016001018555821562000333579182015b828111156200033257825182559160200191906001019062000315565b5b50905062000342919062000346565b5090565b5b808211156200036157600081600090555060010162000347565b5090565b6000815190506200037681620005af565b92915050565b6000815190506200038d81620005c9565b92915050565b600081519050620003a481620005e3565b92915050565b600081519050620003bb81620005fd565b92915050565b60008060008060008060c08789031215620003e157620003e0620005aa565b5b6000620003f189828a0162000365565b96505060206200040489828a016200037c565b95505060406200041789828a01620003aa565b94505060606200042a89828a0162000393565b93505060806200043d89828a0162000393565b92505060a06200045089828a0162000393565b9150509295509295509295565b60006200046a82620004f8565b91506200047783620004f8565b9250827fffffffffffffffffffffffffffffffffffffffffffffffffffffffffffffffff03821115620004af57620004ae6200054c565b5b828201905092915050565b6000620004c782620004d8565b9050919050565b6000819050919050565b600073ffffffffffffffffffffffffffffffffffffffff82169050919050565b6000819050919050565b600067ffffffffffffffff82169050919050565b600060028204905060018216806200052f57607f821691505b602082108114156200054657620005456200057b565b5b50919050565b7f4e487b7100000000000000000000000000000000000000000000000000000000600052601160045260246000fd5b7f4e487b7100000000000000000000000000000000000000000000000000000000600052602260045260246000fd5b600080fd5b620005ba81620004ba565b8114620005c657600080fd5b50565b620005d481620004ce565b8114620005e057600080fd5b50565b620005ee81620004f8565b8114620005fa57600080fd5b50565b620006088162000502565b81146200061457600080fd5b50565b60805160601c60a05160c05160e05161010051610120516101405160c01c6101605160601c613ca4620006c560003960006118c301526000611920015260006118ff015260008181610b79015261151301526000818161138c01526115c4015260008181610d7e01528181610f43015281816114b70152612556015260008181610ed301528181610f6f0152818161161d0152612582015260008181610da20152610df60152613ca46000f3fe60806040526004361061020f5760003560e01c80635bc4607411610118578063b88d4fde116100a0578063e985e9c51161006f578063e985e9c5146107a4578063ed512191146107e1578063edca914c1461080c578063f2fde38b14610816578063f8413b071461083f5761020f565b8063b88d4fde146106e8578063c662e48114610711578063c87b56dd1461073c578063d089adc7146107795761020f565b806372b0d90c116100e757806372b0d90c146106035780637885142d1461062c5780638da5cb5b1461066957806395d89b4114610694578063a22cb465146106bf5761020f565b80635bc46074146105475780636352211e1461057257806370a08231146105af578063715018a6146105ec5761020f565b80631fe543e31161019b578063382960231161016a578063382960231461046057806342842e0e1461048b5780634694ad9c146104b45780634e69d560146104df57806350b447121461050a5761020f565b80631fe543e3146103b857806323b872dd146103e15780632aa51bdf1461040a57806333d608f1146104355761020f565b8063095ea7b3116101e2578063095ea7b3146102e457806309e69ede1461030d5780630aaef2851461034b5780631249c58b146103765780631a5a76231461038d5761020f565b806301ffc9a71461021457806306fdde0314610251578063077001b91461027c578063081812fc146102a7575b600080fd5b34801561022057600080fd5b5061023b60048036038101906102369190612b29565b610856565b6040516102489190613039565b60405180910390f35b34801561025d57600080fd5b50610266610938565b60405161027391906130c2565b60405180910390f35b34801561028857600080fd5b506102916109ca565b60405161029e91906132bf565b60405180910390f35b3480156102b357600080fd5b506102ce60048036038101906102c99190612b83565b6109d4565b6040516102db9190612fa9565b60405180910390f35b3480156102f057600080fd5b5061030b60048036038101906103069190612ae9565b610a1a565b005b34801561031957600080fd5b50610334600480360381019061032f9190612966565b610b32565b6040516103429291906132f5565b60405180910390f35b34801561035757600080fd5b50610360610b77565b60405161036d91906132bf565b60405180910390f35b34801561038257600080fd5b5061038b610b9b565b005b34801561039957600080fd5b506103a2610d7c565b6040516103af91906132bf565b60405180910390f35b3480156103c457600080fd5b506103df60048036038101906103da9190612bdd565b610da0565b005b3480156103ed57600080fd5b50610408600480360381019061040391906129d3565b610e60565b005b34801561041657600080fd5b5061041f610ec0565b60405161042c91906132bf565b60405180910390f35b34801561044157600080fd5b5061044a610eca565b60405161045791906132da565b60405180910390f35b34801561046c57600080fd5b50610475610ed1565b60405161048291906132bf565b60405180910390f35b34801561049757600080fd5b506104b260048036038101906104ad91906129d3565b610ef5565b005b3480156104c057600080fd5b506104c9610f15565b6040516104d691906132da565b60405180910390f35b3480156104eb57600080fd5b506104f4610f1a565b60405161050191906130a7565b60405180910390f35b34801561051657600080fd5b50610531600480360381019061052c9190612b83565b610faa565b60405161053e9190612fa9565b60405180910390f35b34801561055357600080fd5b5061055c610fe9565b6040516105699190613039565b60405180910390f35b34801561057e57600080fd5b5061059960048036038101906105949190612b83565b610ffc565b6040516105a69190612fa9565b60405180910390f35b3480156105bb57600080fd5b506105d660048036038101906105d19190612966565b6110ae565b6040516105e391906132bf565b60405180910390f35b3480156105f857600080fd5b50610601611166565b005b34801561060f57600080fd5b5061062a60048036038101906106259190612966565b61117a565b005b34801561063857600080fd5b50610653600480360381019061064e9190612b83565b611232565b60405161066091906132bf565b60405180910390f35b34801561067557600080fd5b5061067e611256565b60405161068b9190612fa9565b60405180910390f35b3480156106a057600080fd5b506106a9611280565b6040516106b691906130c2565b60405180910390f35b3480156106cb57600080fd5b506106e660048036038101906106e19190612aa9565b611312565b005b3480156106f457600080fd5b5061070f600480360381019061070a9190612a26565b611328565b005b34801561071d57600080fd5b5061072661138a565b60405161073391906132bf565b60405180910390f35b34801561074857600080fd5b50610763600480360381019061075e9190612b83565b6113ae565b60405161077091906130c2565b60405180910390f35b34801561078557600080fd5b5061078e611416565b60405161079b91906132a4565b60405180910390f35b3480156107b057600080fd5b506107cb60048036038101906107c69190612993565b61141b565b6040516107d89190613039565b60405180910390f35b3480156107ed57600080fd5b506107f66114af565b60405161080391906132bf565b60405180910390f35b6108146114b5565b005b34801561082257600080fd5b5061083d60048036038101906108389190612966565b6117c2565b005b34801561084b57600080fd5b50610854611846565b005b60007f80ac58cd000000000000000000000000000000000000000000000000000000007bffffffffffffffffffffffffffffffffffffffffffffffffffffffff1916827bffffffffffffffffffffffffffffffffffffffffffffffffffffffff1916148061092157507f5b5e139f000000000000000000000000000000000000000000000000000000007bffffffffffffffffffffffffffffffffffffffffffffffffffffffff1916827bffffffffffffffffffffffffffffffffffffffffffffffffffffffff1916145b806109315750610930826119c1565b5b9050919050565b606060008054610947906135fb565b80601f0160208091040260200160405190810160405280929190818152602001828054610973906135fb565b80156109c05780601f10610995576101008083540402835291602001916109c0565b820191906000526020600020905b8154815290600101906020018083116109a357829003601f168201915b5050505050905090565b6000600d54905090565b60006109df82611a2b565b6004600083815260200190815260200160002060009054906101000a900473ffffffffffffffffffffffffffffffffffffffff169050919050565b6000610a2582610ffc565b90508073ffffffffffffffffffffffffffffffffffffffff168373ffffffffffffffffffffffffffffffffffffffff161415610a96576040517f08c379a0000000000000000000000000000000000000000000000000000000008152600401610a8d90613264565b60405180910390fd5b8073ffffffffffffffffffffffffffffffffffffffff16610ab5611a76565b73ffffffffffffffffffffffffffffffffffffffff161480610ae45750610ae381610ade611a76565b61141b565b5b610b23576040517f08c379a0000000000000000000000000000000000000000000000000000000008152600401610b1a906131e4565b60405180910390fd5b610b2d8383611a7e565b505050565b60076020528060005260406000206000915090508060000160009054906101000a900464ffffffffff16908060000160059054906101000a900463ffffffff16905082565b7f000000000000000000000000000000000000000000000000000000000000000081565b6000600a541415610bd8576040517f805b260b00000000000000000000000000000000000000000000000000000000815260040160405180910390fd5b6000600760003373ffffffffffffffffffffffffffffffffffffffff1673ffffffffffffffffffffffffffffffffffffffff16815260200190815260200160002060000160059054906101000a900463ffffffff1663ffffffff161415610c6b576040517f9d2b3aa800000000000000000000000000000000000000000000000000000000815260040160405180910390fd5b6000610c7a6009600a54611b37565b9050600060098281548110610c9257610c916137c1565b5b90600052602060002001549050610ca93382611b51565b600760003373ffffffffffffffffffffffffffffffffffffffff1673ffffffffffffffffffffffffffffffffffffffff168152602001908152602001600020600001600581819054906101000a900463ffffffff1680929190610d0b906135d1565b91906101000a81548163ffffffff021916908363ffffffff160217905550503373ffffffffffffffffffffffffffffffffffffffff167f30385c845b448a36257a6a1716e6ad2e1bc2cbe333cde1e69fe849ad6511adfe82604051610d7091906132bf565b60405180910390a25050565b7f000000000000000000000000000000000000000000000000000000000000000081565b7f000000000000000000000000000000000000000000000000000000000000000073ffffffffffffffffffffffffffffffffffffffff163373ffffffffffffffffffffffffffffffffffffffff1614610e5257337f00000000000000000000000000000000000000000000000000000000000000006040517f1cf993f4000000000000000000000000000000000000000000000000000000008152600401610e49929190612fc4565b60405180910390fd5b610e5c8282611d2b565b5050565b610e71610e6b611a76565b82611dc8565b610eb0576040517f08c379a0000000000000000000000000000000000000000000000000000000008152600401610ea790613284565b60405180910390fd5b610ebb838383611e5d565b505050565b6000600c54905090565b62124f8081565b7f000000000000000000000000000000000000000000000000000000000000000081565b610f1083838360405180602001604052806000815250611328565b505050565b600a81565b600080600a5414610f2e5760039050610fa7565b6000600d5414610f415760029050610fa6565b7f0000000000000000000000000000000000000000000000000000000000000000600c54101580610f9257507f00000000000000000000000000000000000000000000000000000000000000004310155b15610fa05760019050610fa5565b600090505b5b5b90565b60088181548110610fba57600080fd5b906000526020600020016000915054906101000a900473ffffffffffffffffffffffffffffffffffffffff1681565b600b60009054906101000a900460ff1681565b6000806002600084815260200190815260200160002060009054906101000a900473ffffffffffffffffffffffffffffffffffffffff169050600073ffffffffffffffffffffffffffffffffffffffff168173ffffffffffffffffffffffffffffffffffffffff1614156110a5576040517f08c379a000000000000000000000000000000000000000000000000000000000815260040161109c90613244565b60405180910390fd5b80915050919050565b60008073ffffffffffffffffffffffffffffffffffffffff168273ffffffffffffffffffffffffffffffffffffffff16141561111f576040517f08c379a0000000000000000000000000000000000000000000000000000000008152600401611116906131c4565b60405180910390fd5b600360008373ffffffffffffffffffffffffffffffffffffffff1673ffffffffffffffffffffffffffffffffffffffff168152602001908152602001600020549050919050565b61116e6120c4565b6111786000612142565b565b6111826120c4565b60008173ffffffffffffffffffffffffffffffffffffffff16476040516111a890612f94565b60006040518083038185875af1925050503d80600081146111e5576040519150601f19603f3d011682016040523d82523d6000602084013e6111ea565b606091505b505090508061122e576040517f08c379a0000000000000000000000000000000000000000000000000000000008152600401611225906130e4565b60405180910390fd5b5050565b6009818154811061124257600080fd5b906000526020600020016000915090505481565b6000600660009054906101000a900473ffffffffffffffffffffffffffffffffffffffff16905090565b60606001805461128f906135fb565b80601f01602080910402602001604051908101604052809291908181526020018280546112bb906135fb565b80156113085780601f106112dd57610100808354040283529160200191611308565b820191906000526020600020905b8154815290600101906020018083116112eb57829003601f168201915b5050505050905090565b61132461131d611a76565b8383612208565b5050565b611339611333611a76565b83611dc8565b611378576040517f08c379a000000000000000000000000000000000000000000000000000000000815260040161136f90613284565b60405180910390fd5b61138484848484612375565b50505050565b7f000000000000000000000000000000000000000000000000000000000000000081565b60606113b982611a2b565b60006113c36123d1565b905060008151116113e3576040518060200160405280600081525061140e565b806113ed846123f1565b6040516020016113fe929190612f70565b6040516020818303038152906040525b915050919050565b600381565b6000600560008473ffffffffffffffffffffffffffffffffffffffff1673ffffffffffffffffffffffffffffffffffffffff16815260200190815260200160002060008373ffffffffffffffffffffffffffffffffffffffff1673ffffffffffffffffffffffffffffffffffffffff16815260200190815260200160002060009054906101000a900460ff16905092915050565b600a5481565b7f0000000000000000000000000000000000000000000000000000000000000000600c541115611511576040517f0410da8e00000000000000000000000000000000000000000000000000000000815260040160405180910390fd5b7f0000000000000000000000000000000000000000000000000000000000000000600760003373ffffffffffffffffffffffffffffffffffffffff1673ffffffffffffffffffffffffffffffffffffffff16815260200190815260200160002060000160059054906101000a900463ffffffff1663ffffffff16106115c2576040517f2291dad300000000000000000000000000000000000000000000000000000000815260040160405180910390fd5b7f0000000000000000000000000000000000000000000000000000000000000000341461161b576040517f8a0d377900000000000000000000000000000000000000000000000000000000815260040160405180910390fd5b7f00000000000000000000000000000000000000000000000000000000000000004310611674576040517fd328a25200000000000000000000000000000000000000000000000000000000815260040160405180910390fd5b600760003373ffffffffffffffffffffffffffffffffffffffff1673ffffffffffffffffffffffffffffffffffffffff168152602001908152602001600020600001600581819054906101000a900463ffffffff16809291906116d6906136a7565b91906101000a81548163ffffffff021916908363ffffffff16021790555050600c60008154809291906117089061365e565b91905055506008339080600181540180825580915050600190039060005260206000200160009091909190916101000a81548173ffffffffffffffffffffffffffffffffffffffff021916908373ffffffffffffffffffffffffffffffffffffffff1602179055503373ffffffffffffffffffffffffffffffffffffffff167f8ef92257fbc070823c8bb4051ff3a58b831946d893fbb1bfd9bc77b87ff77d09600c546040516117b891906132bf565b60405180910390a2565b6117ca6120c4565b600073ffffffffffffffffffffffffffffffffffffffff168173ffffffffffffffffffffffffffffffffffffffff16141561183a576040517f08c379a000000000000000000000000000000000000000000000000000000000815260040161183190613124565b60405180910390fd5b61184381612142565b50565b6000600d5414611882576040517f9ce4cccf00000000000000000000000000000000000000000000000000000000815260040160405180910390fd5b61188a612552565b156118c1576040517f4ac0e46700000000000000000000000000000000000000000000000000000000815260040160405180910390fd5b7f000000000000000000000000000000000000000000000000000000000000000073ffffffffffffffffffffffffffffffffffffffff16635d3b1d307f00000000000000000000000000000000000000000000000000000000000000007f0000000000000000000000000000000000000000000000000000000000000000600362124f80600a6040518663ffffffff1660e01b8152600401611967959493929190613054565b602060405180830381600087803b15801561198157600080fd5b505af1158015611995573d6000803e3d6000fd5b505050506040513d601f19601f820116820180604052508101906119b99190612bb0565b600d81905550565b60007f01ffc9a7000000000000000000000000000000000000000000000000000000007bffffffffffffffffffffffffffffffffffffffffffffffffffffffff1916827bffffffffffffffffffffffffffffffffffffffffffffffffffffffff1916149050919050565b611a34816125aa565b611a73576040517f08c379a0000000000000000000000000000000000000000000000000000000008152600401611a6a90613244565b60405180910390fd5b50565b600033905090565b816004600083815260200190815260200160002060006101000a81548173ffffffffffffffffffffffffffffffffffffffff021916908373ffffffffffffffffffffffffffffffffffffffff160217905550808273ffffffffffffffffffffffffffffffffffffffff16611af183610ffc565b73ffffffffffffffffffffffffffffffffffffffff167f8c5be1e5ebec7d5bd14f71427d1e84f3dd0314c0f7b2291e5b200ac8c7c3b92560405160405180910390a45050565b6000828054905082611b4991906136d4565b905092915050565b600073ffffffffffffffffffffffffffffffffffffffff168273ffffffffffffffffffffffffffffffffffffffff161415611bc1576040517f08c379a0000000000000000000000000000000000000000000000000000000008152600401611bb890613204565b60405180910390fd5b611bca816125aa565b15611c0a576040517f08c379a0000000000000000000000000000000000000000000000000000000008152600401611c0190613164565b60405180910390fd5b611c1660008383612616565b6001600360008473ffffffffffffffffffffffffffffffffffffffff1673ffffffffffffffffffffffffffffffffffffffff1681526020019081526020016000206000828254611c6691906133ee565b92505081905550816002600083815260200190815260200160002060006101000a81548173ffffffffffffffffffffffffffffffffffffffff021916908373ffffffffffffffffffffffffffffffffffffffff160217905550808273ffffffffffffffffffffffffffffffffffffffff16600073ffffffffffffffffffffffffffffffffffffffff167fddf252ad1be2c89b69c2b068fc378daa952ba7f163c4a11628f55a4df523b3ef60405160405180910390a4611d276000838361261b565b5050565b81600d5414611d66576040517fba0514c000000000000000000000000000000000000000000000000000000000815260040160405180910390fd5b6000600a5414611da2576040517f411354e300000000000000000000000000000000000000000000000000000000815260040160405180910390fd5b80600081518110611db657611db56137c1565b5b6020026020010151600a819055505050565b600080611dd483610ffc565b90508073ffffffffffffffffffffffffffffffffffffffff168473ffffffffffffffffffffffffffffffffffffffff161480611e165750611e15818561141b565b5b80611e5457508373ffffffffffffffffffffffffffffffffffffffff16611e3c846109d4565b73ffffffffffffffffffffffffffffffffffffffff16145b91505092915050565b8273ffffffffffffffffffffffffffffffffffffffff16611e7d82610ffc565b73ffffffffffffffffffffffffffffffffffffffff1614611ed3576040517f08c379a0000000000000000000000000000000000000000000000000000000008152600401611eca90613144565b60405180910390fd5b600073ffffffffffffffffffffffffffffffffffffffff168273ffffffffffffffffffffffffffffffffffffffff161415611f43576040517f08c379a0000000000000000000000000000000000000000000000000000000008152600401611f3a90613184565b60405180910390fd5b611f4e838383612616565b611f59600082611a7e565b6001600360008573ffffffffffffffffffffffffffffffffffffffff1673ffffffffffffffffffffffffffffffffffffffff1681526020019081526020016000206000828254611fa99190613475565b925050819055506001600360008473ffffffffffffffffffffffffffffffffffffffff1673ffffffffffffffffffffffffffffffffffffffff168152602001908152602001600020600082825461200091906133ee565b92505081905550816002600083815260200190815260200160002060006101000a81548173ffffffffffffffffffffffffffffffffffffffff021916908373ffffffffffffffffffffffffffffffffffffffff160217905550808273ffffffffffffffffffffffffffffffffffffffff168473ffffffffffffffffffffffffffffffffffffffff167fddf252ad1be2c89b69c2b068fc378daa952ba7f163c4a11628f55a4df523b3ef60405160405180910390a46120bf83838361261b565b505050565b6120cc611a76565b73ffffffffffffffffffffffffffffffffffffffff166120ea611256565b73ffffffffffffffffffffffffffffffffffffffff1614612140576040517f08c379a000000000000000000000000000000000000000000000000000000000815260040161213790613224565b60405180910390fd5b565b6000600660009054906101000a900473ffffffffffffffffffffffffffffffffffffffff16905081600660006101000a81548173ffffffffffffffffffffffffffffffffffffffff021916908373ffffffffffffffffffffffffffffffffffffffff1602179055508173ffffffffffffffffffffffffffffffffffffffff168173ffffffffffffffffffffffffffffffffffffffff167f8be0079c531659141344cd1fd0a4f28419497f9722a3daafe3b4186f6b6457e060405160405180910390a35050565b8173ffffffffffffffffffffffffffffffffffffffff168373ffffffffffffffffffffffffffffffffffffffff161415612277576040517f08c379a000000000000000000000000000000000000000000000000000000000815260040161226e906131a4565b60405180910390fd5b80600560008573ffffffffffffffffffffffffffffffffffffffff1673ffffffffffffffffffffffffffffffffffffffff16815260200190815260200160002060008473ffffffffffffffffffffffffffffffffffffffff1673ffffffffffffffffffffffffffffffffffffffff16815260200190815260200160002060006101000a81548160ff0219169083151502179055508173ffffffffffffffffffffffffffffffffffffffff168373ffffffffffffffffffffffffffffffffffffffff167f17307eab39ab6107e8899845ad3d59bd9653f200f220920489ca2b5937696c31836040516123689190613039565b60405180910390a3505050565b612380848484611e5d565b61238c84848484612620565b6123cb576040517f08c379a00000000000000000000000000000000000000000000000000000000081526004016123c290613104565b60405180910390fd5b50505050565b6060604051806080016040528060448152602001613c2b60449139905090565b60606000821415612439576040518060400160405280600181526020017f3000000000000000000000000000000000000000000000000000000000000000815250905061254d565b600082905060005b6000821461246b5780806124549061365e565b915050600a826124649190613444565b9150612441565b60008167ffffffffffffffff811115612487576124866137f0565b5b6040519080825280601f01601f1916602001820160405280156124b95781602001600182028036833780820191505090505b5090505b60008514612546576001826124d29190613475565b9150600a856124e191906136d4565b60306124ed91906133ee565b60f81b818381518110612503576125026137c1565b5b60200101907effffffffffffffffffffffffffffffffffffffffffffffffffffffffffffff1916908160001a905350600a8561253f9190613444565b94506124bd565b8093505050505b919050565b60007f0000000000000000000000000000000000000000000000000000000000000000600c541080156125a557507f00000000000000000000000000000000000000000000000000000000000000004311155b905090565b60008073ffffffffffffffffffffffffffffffffffffffff166002600084815260200190815260200160002060009054906101000a900473ffffffffffffffffffffffffffffffffffffffff1673ffffffffffffffffffffffffffffffffffffffff1614159050919050565b505050565b505050565b60006126418473ffffffffffffffffffffffffffffffffffffffff166127b7565b156127aa578373ffffffffffffffffffffffffffffffffffffffff1663150b7a0261266a611a76565b8786866040518563ffffffff1660e01b815260040161268c9493929190612fed565b602060405180830381600087803b1580156126a657600080fd5b505af19250505080156126d757506040513d601f19601f820116820180604052508101906126d49190612b56565b60015b61275a573d8060008114612707576040519150601f19603f3d011682016040523d82523d6000602084013e61270c565b606091505b50600081511415612752576040517f08c379a000000000000000000000000000000000000000000000000000000000815260040161274990613104565b60405180910390fd5b805181602001fd5b63150b7a0260e01b7bffffffffffffffffffffffffffffffffffffffffffffffffffffffff1916817bffffffffffffffffffffffffffffffffffffffffffffffffffffffff1916149150506127af565b600190505b949350505050565b6000808273ffffffffffffffffffffffffffffffffffffffff163b119050919050565b60006127ed6127e884613343565b61331e565b905080838252602082019050828560208602820111156128105761280f613824565b5b60005b858110156128405781612826888261293c565b845260208401935060208301925050600181019050612813565b5050509392505050565b600061285d6128588461336f565b61331e565b90508281526020810184848401111561287957612878613829565b5b61288484828561358f565b509392505050565b60008135905061289b81613bce565b92915050565b600082601f8301126128b6576128b561381f565b5b81356128c68482602086016127da565b91505092915050565b6000813590506128de81613be5565b92915050565b6000813590506128f381613bfc565b92915050565b60008151905061290881613bfc565b92915050565b600082601f8301126129235761292261381f565b5b813561293384826020860161284a565b91505092915050565b60008135905061294b81613c13565b92915050565b60008151905061296081613c13565b92915050565b60006020828403121561297c5761297b613833565b5b600061298a8482850161288c565b91505092915050565b600080604083850312156129aa576129a9613833565b5b60006129b88582860161288c565b92505060206129c98582860161288c565b9150509250929050565b6000806000606084860312156129ec576129eb613833565b5b60006129fa8682870161288c565b9350506020612a0b8682870161288c565b9250506040612a1c8682870161293c565b9150509250925092565b60008060008060808587031215612a4057612a3f613833565b5b6000612a4e8782880161288c565b9450506020612a5f8782880161288c565b9350506040612a708782880161293c565b925050606085013567ffffffffffffffff811115612a9157612a9061382e565b5b612a9d8782880161290e565b91505092959194509250565b60008060408385031215612ac057612abf613833565b5b6000612ace8582860161288c565b9250506020612adf858286016128cf565b9150509250929050565b60008060408385031215612b0057612aff613833565b5b6000612b0e8582860161288c565b9250506020612b1f8582860161293c565b9150509250929050565b600060208284031215612b3f57612b3e613833565b5b6000612b4d848285016128e4565b91505092915050565b600060208284031215612b6c57612b6b613833565b5b6000612b7a848285016128f9565b91505092915050565b600060208284031215612b9957612b98613833565b5b6000612ba78482850161293c565b91505092915050565b600060208284031215612bc657612bc5613833565b5b6000612bd484828501612951565b91505092915050565b60008060408385031215612bf457612bf3613833565b5b6000612c028582860161293c565b925050602083013567ffffffffffffffff811115612c2357612c2261382e565b5b612c2f858286016128a1565b9150509250929050565b612c42816134a9565b82525050565b612c51816134bb565b82525050565b612c60816134c7565b82525050565b6000612c71826133a0565b612c7b81856133b6565b9350612c8b81856020860161359e565b612c9481613838565b840191505092915050565b612ca88161357d565b82525050565b6000612cb9826133ab565b612cc381856133d2565b9350612cd381856020860161359e565b612cdc81613838565b840191505092915050565b6000612cf2826133ab565b612cfc81856133e3565b9350612d0c81856020860161359e565b80840191505092915050565b6000612d256016836133d2565b9150612d3082613849565b602082019050919050565b6000612d486032836133d2565b9150612d5382613872565b604082019050919050565b6000612d6b6026836133d2565b9150612d76826138c1565b604082019050919050565b6000612d8e6025836133d2565b9150612d9982613910565b604082019050919050565b6000612db1601c836133d2565b9150612dbc8261395f565b602082019050919050565b6000612dd46024836133d2565b9150612ddf82613988565b604082019050919050565b6000612df76019836133d2565b9150612e02826139d7565b602082019050919050565b6000612e1a6029836133d2565b9150612e2582613a00565b604082019050919050565b6000612e3d603e836133d2565b9150612e4882613a4f565b604082019050919050565b6000612e606020836133d2565b9150612e6b82613a9e565b602082019050919050565b6000612e836020836133d2565b9150612e8e82613ac7565b602082019050919050565b6000612ea66018836133d2565b9150612eb182613af0565b602082019050919050565b6000612ec96021836133d2565b9150612ed482613b19565b604082019050919050565b6000612eec6000836133c7565b9150612ef782613b68565b600082019050919050565b6000612f0f602e836133d2565b9150612f1a82613b6b565b604082019050919050565b612f2e81613510565b82525050565b612f3d8161353e565b82525050565b612f4c81613548565b82525050565b612f5b81613558565b82525050565b612f6a81613569565b82525050565b6000612f7c8285612ce7565b9150612f888284612ce7565b91508190509392505050565b6000612f9f82612edf565b9150819050919050565b6000602082019050612fbe6000830184612c39565b92915050565b6000604082019050612fd96000830185612c39565b612fe66020830184612c39565b9392505050565b60006080820190506130026000830187612c39565b61300f6020830186612c39565b61301c6040830185612f34565b818103606083015261302e8184612c66565b905095945050505050565b600060208201905061304e6000830184612c48565b92915050565b600060a0820190506130696000830188612c57565b6130766020830187612f61565b6130836040830186612f25565b6130906060830185612f43565b61309d6080830184612f43565b9695505050505050565b60006020820190506130bc6000830184612c9f565b92915050565b600060208201905081810360008301526130dc8184612cae565b905092915050565b600060208201905081810360008301526130fd81612d18565b9050919050565b6000602082019050818103600083015261311d81612d3b565b9050919050565b6000602082019050818103600083015261313d81612d5e565b9050919050565b6000602082019050818103600083015261315d81612d81565b9050919050565b6000602082019050818103600083015261317d81612da4565b9050919050565b6000602082019050818103600083015261319d81612dc7565b9050919050565b600060208201905081810360008301526131bd81612dea565b9050919050565b600060208201905081810360008301526131dd81612e0d565b9050919050565b600060208201905081810360008301526131fd81612e30565b9050919050565b6000602082019050818103600083015261321d81612e53565b9050919050565b6000602082019050818103600083015261323d81612e76565b9050919050565b6000602082019050818103600083015261325d81612e99565b9050919050565b6000602082019050818103600083015261327d81612ebc565b9050919050565b6000602082019050818103600083015261329d81612f02565b9050919050565b60006020820190506132b96000830184612f25565b92915050565b60006020820190506132d46000830184612f34565b92915050565b60006020820190506132ef6000830184612f43565b92915050565b600060408201905061330a6000830185612f52565b6133176020830184612f43565b9392505050565b6000613328613339565b9050613334828261362d565b919050565b6000604051905090565b600067ffffffffffffffff82111561335e5761335d6137f0565b5b602082029050602081019050919050565b600067ffffffffffffffff82111561338a576133896137f0565b5b61339382613838565b9050602081019050919050565b600081519050919050565b600081519050919050565b600082825260208201905092915050565b600081905092915050565b600082825260208201905092915050565b600081905092915050565b60006133f98261353e565b91506134048361353e565b9250827fffffffffffffffffffffffffffffffffffffffffffffffffffffffffffffffff0382111561343957613438613705565b5b828201905092915050565b600061344f8261353e565b915061345a8361353e565b92508261346a57613469613734565b5b828204905092915050565b60006134808261353e565b915061348b8361353e565b92508282101561349e5761349d613705565b5b828203905092915050565b60006134b48261351e565b9050919050565b60008115159050919050565b6000819050919050565b60007fffffffff0000000000000000000000000000000000000000000000000000000082169050919050565b600081905061350b82613bba565b919050565b600061ffff82169050919050565b600073ffffffffffffffffffffffffffffffffffffffff82169050919050565b6000819050919050565b600063ffffffff82169050919050565b600064ffffffffff82169050919050565b600067ffffffffffffffff82169050919050565b6000613588826134fd565b9050919050565b82818337600083830152505050565b60005b838110156135bc5780820151818401526020810190506135a1565b838111156135cb576000848401525b50505050565b60006135dc82613548565b915060008214156135f0576135ef613705565b5b600182039050919050565b6000600282049050600182168061361357607f821691505b6020821081141561362757613626613792565b5b50919050565b61363682613838565b810181811067ffffffffffffffff82111715613655576136546137f0565b5b80604052505050565b60006136698261353e565b91507fffffffffffffffffffffffffffffffffffffffffffffffffffffffffffffffff82141561369c5761369b613705565b5b600182019050919050565b60006136b282613548565b915063ffffffff8214156136c9576136c8613705565b5b600182019050919050565b60006136df8261353e565b91506136ea8361353e565b9250826136fa576136f9613734565b5b828206905092915050565b7f4e487b7100000000000000000000000000000000000000000000000000000000600052601160045260246000fd5b7f4e487b7100000000000000000000000000000000000000000000000000000000600052601260045260246000fd5b7f4e487b7100000000000000000000000000000000000000000000000000000000600052602160045260246000fd5b7f4e487b7100000000000000000000000000000000000000000000000000000000600052602260045260246000fd5b7f4e487b7100000000000000000000000000000000000000000000000000000000600052603260045260246000fd5b7f4e487b7100000000000000000000000000000000000000000000000000000000600052604160045260246000fd5b600080fd5b600080fd5b600080fd5b600080fd5b600080fd5b6000601f19601f8301169050919050565b7f556e7375636365737366756c20696e207061796f757400000000000000000000600082015250565b7f4552433732313a207472616e7366657220746f206e6f6e20455243373231526560008201527f63656976657220696d706c656d656e7465720000000000000000000000000000602082015250565b7f4f776e61626c653a206e6577206f776e657220697320746865207a65726f206160008201527f6464726573730000000000000000000000000000000000000000000000000000602082015250565b7f4552433732313a207472616e736665722066726f6d20696e636f72726563742060008201527f6f776e6572000000000000000000000000000000000000000000000000000000602082015250565b7f4552433732313a20746f6b656e20616c7265616479206d696e74656400000000600082015250565b7f4552433732313a207472616e7366657220746f20746865207a65726f2061646460008201527f7265737300000000000000000000000000000000000000000000000000000000602082015250565b7f4552433732313a20617070726f766520746f2063616c6c657200000000000000600082015250565b7f4552433732313a2061646472657373207a65726f206973206e6f74206120766160008201527f6c6964206f776e65720000000000000000000000000000000000000000000000602082015250565b7f4552433732313a20617070726f76652063616c6c6572206973206e6f7420746f60008201527f6b656e206f776e6572206e6f7220617070726f76656420666f7220616c6c0000602082015250565b7f4552433732313a206d696e7420746f20746865207a65726f2061646472657373600082015250565b7f4f776e61626c653a2063616c6c6572206973206e6f7420746865206f776e6572600082015250565b7f4552433732313a20696e76616c696420746f6b656e2049440000000000000000600082015250565b7f4552433732313a20617070726f76616c20746f2063757272656e74206f776e6560008201527f7200000000000000000000000000000000000000000000000000000000000000602082015250565b50565b7f4552433732313a2063616c6c6572206973206e6f7420746f6b656e206f776e6560008201527f72206e6f7220617070726f766564000000000000000000000000000000000000602082015250565b60048110613bcb57613bca613763565b5b50565b613bd7816134a9565b8114613be257600080fd5b50565b613bee816134bb565b8114613bf957600080fd5b50565b613c05816134d1565b8114613c1057600080fd5b50565b613c1c8161353e565b8114613c2757600080fd5b5056fe68747470733a2f2f697066732e696f2f697066732f516d5178446a45686e5950365141744c52794c56394e37646e316b4469677a3769576e783570736d7958717933352fa26469706673582212204d7f4431b24383e17cb6d8fa6713ce8d7d04caff0c3d785872b604efb6baa5b364736f6c63430008070033",
  "devdoc": {
    "author": "rloot",
    "events": {
      "Minted(address,uint256)": {
        "params": {
          "tokenId": "Number of the ticket sold",
          "user": "Address of raffle participant"
        }
      },
      "TicketSold(address,uint256)": {
        "params": {
          "ticketId": "Number of the ticket sold",
          "user": "Address of raffle participant"
        }
      }
    },
    "kind": "dev",
    "methods": {
      "approve(address,uint256)": {
        "details": "See {IERC721-approve}."
      },
      "balanceOf(address)": {
        "details": "See {IERC721-balanceOf}."
      },
      "getApproved(uint256)": {
        "details": "See {IERC721-getApproved}."
      },
      "isApprovedForAll(address,address)": {
        "details": "See {IERC721-isApprovedForAll}."
      },
      "name()": {
        "details": "See {IERC721Metadata-name}."
      },
      "owner()": {
        "details": "Returns the address of the current owner."
      },
      "ownerOf(uint256)": {
        "details": "See {IERC721-ownerOf}."
      },
      "renounceOwnership()": {
        "details": "Leaves the contract without owner. It will not be possible to call `onlyOwner` functions anymore. Can only be called by the current owner. NOTE: Renouncing ownership will leave the contract without an owner, thereby removing any functionality that is only available to the owner."
      },
      "safeTransferFrom(address,address,uint256)": {
        "details": "See {IERC721-safeTransferFrom}."
      },
      "safeTransferFrom(address,address,uint256,bytes)": {
        "details": "See {IERC721-safeTransferFrom}."
      },
      "setApprovalForAll(address,bool)": {
        "details": "See {IERC721-setApprovalForAll}."
      },
      "supportsInterface(bytes4)": {
        "details": "See {IERC165-supportsInterface}."
      },
      "symbol()": {
        "details": "See {IERC721Metadata-symbol}."
      },
      "tokenURI(uint256)": {
        "details": "See {IERC721Metadata-tokenURI}."
      },
      "transferFrom(address,address,uint256)": {
        "details": "See {IERC721-transferFrom}."
      },
      "transferOwnership(address)": {
        "details": "Transfers ownership of the contract to a new account (`newOwner`). Can only be called by the current owner."
      }
    },
    "title": "SingleShuffle",
    "version": 1
  },
  "userdoc": {
    "errors": {
      "TicketsSoldOut()": [
        {
          "notice": "============ Errors ============"
        }
      ]
    },
    "events": {
      "Minted(address,uint256)": {
        "notice": "Emitted after a successful mint "
      },
      "TicketSold(address,uint256)": {
        "notice": "Emitted after a successful ticket sell "
      }
    },
    "kind": "user",
    "methods": {
      "FINALIZATION_BLOCKNUMBER()": {
        "notice": "Blocknumber raffle ends at."
      },
      "MAX_PER_ADDRESS()": {
        "notice": "Maximum tickets per address"
      },
      "MINT_COST()": {
        "notice": "Minimum cost for ticket"
      },
      "TICKETS_AMOUNT()": {
        "notice": "Avalible NFTs to be minted"
      },
      "_entropy()": {
        "notice": "Source of entropy"
      },
      "buyTicket()": {
        "notice": "Enters raffle "
      },
      "constructor": {
        "notice": "Creates a new NFT distribution contract"
      },
      "getSoldTickets()": {
        "notice": "Get total numbers of tickets sold "
      },
      "mint()": {
        "notice": "Generate rand index for the NFTid, mint NFT and remove it from array "
      },
      "participants(address)": {
        "notice": "Keep track of participants "
      },
      "proceedsClaimed()": {
        "notice": "Owner has claimed raffle proceeds"
      },
      "tickets(uint256)": {
        "notice": "Array of participant addresses "
      },
      "withdrawTo(address)": {
        "notice": "Allows contract owner to withdraw proceeds of tickets"
      }
    },
    "notice": "ERC721 randomized distribution",
    "version": 1
  },
  "storageLayout": {
    "storage": [
      {
        "astId": 285,
        "contract": "contracts/ShuffleOne.sol:ShuffleOne",
        "label": "_name",
        "offset": 0,
        "slot": "0",
        "type": "t_string_storage"
      },
      {
        "astId": 287,
        "contract": "contracts/ShuffleOne.sol:ShuffleOne",
        "label": "_symbol",
        "offset": 0,
        "slot": "1",
        "type": "t_string_storage"
      },
      {
        "astId": 291,
        "contract": "contracts/ShuffleOne.sol:ShuffleOne",
        "label": "_owners",
        "offset": 0,
        "slot": "2",
        "type": "t_mapping(t_uint256,t_address)"
      },
      {
        "astId": 295,
        "contract": "contracts/ShuffleOne.sol:ShuffleOne",
        "label": "_balances",
        "offset": 0,
        "slot": "3",
        "type": "t_mapping(t_address,t_uint256)"
      },
      {
        "astId": 299,
        "contract": "contracts/ShuffleOne.sol:ShuffleOne",
        "label": "_tokenApprovals",
        "offset": 0,
        "slot": "4",
        "type": "t_mapping(t_uint256,t_address)"
      },
      {
        "astId": 305,
        "contract": "contracts/ShuffleOne.sol:ShuffleOne",
        "label": "_operatorApprovals",
        "offset": 0,
        "slot": "5",
        "type": "t_mapping(t_address,t_mapping(t_address,t_bool))"
      },
      {
        "astId": 154,
        "contract": "contracts/ShuffleOne.sol:ShuffleOne",
        "label": "_owner",
        "offset": 0,
        "slot": "6",
        "type": "t_address"
      },
      {
        "astId": 2025,
        "contract": "contracts/ShuffleOne.sol:ShuffleOne",
        "label": "participants",
        "offset": 0,
        "slot": "7",
        "type": "t_mapping(t_address,t_struct(Participant2)2006_storage)"
      },
      {
        "astId": 2029,
        "contract": "contracts/ShuffleOne.sol:ShuffleOne",
        "label": "tickets",
        "offset": 0,
        "slot": "8",
        "type": "t_array(t_address)dyn_storage"
      },
      {
        "astId": 2032,
        "contract": "contracts/ShuffleOne.sol:ShuffleOne",
        "label": "NFTsId",
        "offset": 0,
        "slot": "9",
        "type": "t_array(t_uint256)dyn_storage"
      },
      {
        "astId": 2035,
        "contract": "contracts/ShuffleOne.sol:ShuffleOne",
        "label": "_entropy",
        "offset": 0,
        "slot": "10",
        "type": "t_uint256"
      },
      {
        "astId": 2039,
        "contract": "contracts/ShuffleOne.sol:ShuffleOne",
        "label": "proceedsClaimed",
        "offset": 0,
        "slot": "11",
        "type": "t_bool"
      },
      {
        "astId": 2042,
        "contract": "contracts/ShuffleOne.sol:ShuffleOne",
        "label": "_soldTicketsCounter",
        "offset": 0,
        "slot": "12",
        "type": "t_uint256"
      },
      {
        "astId": 2050,
        "contract": "contracts/ShuffleOne.sol:ShuffleOne",
        "label": "_requestId",
        "offset": 0,
        "slot": "13",
        "type": "t_uint256"
      }
    ],
    "types": {
      "t_address": {
        "encoding": "inplace",
        "label": "address",
        "numberOfBytes": "20"
      },
      "t_array(t_address)dyn_storage": {
        "base": "t_address",
        "encoding": "dynamic_array",
        "label": "address[]",
        "numberOfBytes": "32"
      },
      "t_array(t_uint256)dyn_storage": {
        "base": "t_uint256",
        "encoding": "dynamic_array",
        "label": "uint256[]",
        "numberOfBytes": "32"
      },
      "t_bool": {
        "encoding": "inplace",
        "label": "bool",
        "numberOfBytes": "1"
      },
      "t_mapping(t_address,t_bool)": {
        "encoding": "mapping",
        "key": "t_address",
        "label": "mapping(address => bool)",
        "numberOfBytes": "32",
        "value": "t_bool"
      },
      "t_mapping(t_address,t_mapping(t_address,t_bool))": {
        "encoding": "mapping",
        "key": "t_address",
        "label": "mapping(address => mapping(address => bool))",
        "numberOfBytes": "32",
        "value": "t_mapping(t_address,t_bool)"
      },
      "t_mapping(t_address,t_struct(Participant2)2006_storage)": {
        "encoding": "mapping",
        "key": "t_address",
        "label": "mapping(address => struct ShuffleOne.Participant2)",
        "numberOfBytes": "32",
        "value": "t_struct(Participant2)2006_storage"
      },
      "t_mapping(t_address,t_uint256)": {
        "encoding": "mapping",
        "key": "t_address",
        "label": "mapping(address => uint256)",
        "numberOfBytes": "32",
        "value": "t_uint256"
      },
      "t_mapping(t_uint256,t_address)": {
        "encoding": "mapping",
        "key": "t_uint256",
        "label": "mapping(uint256 => address)",
        "numberOfBytes": "32",
        "value": "t_address"
      },
      "t_string_storage": {
        "encoding": "bytes",
        "label": "string",
        "numberOfBytes": "32"
      },
      "t_struct(Participant2)2006_storage": {
        "encoding": "inplace",
        "label": "struct ShuffleOne.Participant2",
        "members": [
          {
            "astId": 2003,
            "contract": "contracts/ShuffleOne.sol:ShuffleOne",
            "label": "timestamp",
            "offset": 0,
            "slot": "0",
            "type": "t_uint40"
          },
          {
            "astId": 2005,
            "contract": "contracts/ShuffleOne.sol:ShuffleOne",
            "label": "redeemableTickets",
            "offset": 5,
            "slot": "0",
            "type": "t_uint32"
          }
        ],
        "numberOfBytes": "32"
      },
      "t_uint256": {
        "encoding": "inplace",
        "label": "uint256",
        "numberOfBytes": "32"
      },
      "t_uint32": {
        "encoding": "inplace",
        "label": "uint32",
        "numberOfBytes": "4"
      },
      "t_uint40": {
        "encoding": "inplace",
        "label": "uint40",
        "numberOfBytes": "5"
      }
    }
  }
}