{
  "address": "0x0165878A594ca255338adfa4d48449f69242Eb8F",
  "abi": [
    {
      "inputs": [
        {
          "internalType": "address",
          "name": "vrfCoordinator",
          "type": "address"
        },
        {
          "internalType": "bytes32",
          "name": "keyHash",
          "type": "bytes32"
        },
        {
          "internalType": "uint64",
          "name": "subId",
          "type": "uint64"
        },
        {
          "internalType": "uint256",
          "name": "_AVAILABLE_SUPPLY",
          "type": "uint256"
        },
        {
          "internalType": "uint256",
          "name": "_MINT_COST",
          "type": "uint256"
        },
        {
          "internalType": "uint256",
          "name": "_RAFFLE_BLOCKS_DURATION",
          "type": "uint256"
        }
      ],
      "stateMutability": "nonpayable",
      "type": "constructor"
    },
    {
      "inputs": [
        {
          "internalType": "address",
          "name": "have",
          "type": "address"
        },
        {
          "internalType": "address",
          "name": "want",
          "type": "address"
        }
      ],
      "name": "OnlyCoordinatorCanFulfill",
      "type": "error"
    },
    {
      "anonymous": false,
      "inputs": [
        {
          "indexed": true,
          "internalType": "address",
          "name": "owner",
          "type": "address"
        },
        {
          "indexed": true,
          "internalType": "address",
          "name": "approved",
          "type": "address"
        },
        {
          "indexed": true,
          "internalType": "uint256",
          "name": "tokenId",
          "type": "uint256"
        }
      ],
      "name": "Approval",
      "type": "event"
    },
    {
      "anonymous": false,
      "inputs": [
        {
          "indexed": true,
          "internalType": "address",
          "name": "owner",
          "type": "address"
        },
        {
          "indexed": true,
          "internalType": "address",
          "name": "operator",
          "type": "address"
        },
        {
          "indexed": false,
          "internalType": "bool",
          "name": "approved",
          "type": "bool"
        }
      ],
      "name": "ApprovalForAll",
      "type": "event"
    },
    {
      "anonymous": false,
      "inputs": [
        {
          "indexed": true,
          "internalType": "address",
          "name": "user",
          "type": "address"
        },
        {
          "indexed": false,
          "internalType": "uint256",
          "name": "tokenId",
          "type": "uint256"
        }
      ],
      "name": "Minted",
      "type": "event"
    },
    {
      "anonymous": false,
      "inputs": [
        {
          "indexed": true,
          "internalType": "address",
          "name": "previousOwner",
          "type": "address"
        },
        {
          "indexed": true,
          "internalType": "address",
          "name": "newOwner",
          "type": "address"
        }
      ],
      "name": "OwnershipTransferred",
      "type": "event"
    },
    {
      "anonymous": false,
      "inputs": [
        {
          "indexed": true,
          "internalType": "address",
          "name": "user",
          "type": "address"
        },
        {
          "indexed": false,
          "internalType": "uint256",
          "name": "ticketId",
          "type": "uint256"
        }
      ],
      "name": "TicketSold",
      "type": "event"
    },
    {
      "anonymous": false,
      "inputs": [
        {
          "indexed": true,
          "internalType": "address",
          "name": "from",
          "type": "address"
        },
        {
          "indexed": true,
          "internalType": "address",
          "name": "to",
          "type": "address"
        },
        {
          "indexed": true,
          "internalType": "uint256",
          "name": "tokenId",
          "type": "uint256"
        }
      ],
      "name": "Transfer",
      "type": "event"
    },
    {
      "inputs": [],
      "name": "AVAILABLE_SUPPLY",
      "outputs": [
        {
          "internalType": "uint256",
          "name": "",
          "type": "uint256"
        }
      ],
      "stateMutability": "view",
      "type": "function"
    },
    {
      "inputs": [],
      "name": "CALLBACK_GAS_LIMIT",
      "outputs": [
        {
          "internalType": "uint32",
          "name": "",
          "type": "uint32"
        }
      ],
      "stateMutability": "view",
      "type": "function"
    },
    {
      "inputs": [],
      "name": "MAX_PER_ADDRESS",
      "outputs": [
        {
          "internalType": "uint256",
          "name": "",
          "type": "uint256"
        }
      ],
      "stateMutability": "view",
      "type": "function"
    },
    {
      "inputs": [],
      "name": "MINIMUM_CONFIRMATIONS",
      "outputs": [
        {
          "internalType": "uint16",
          "name": "",
          "type": "uint16"
        }
      ],
      "stateMutability": "view",
      "type": "function"
    },
    {
      "inputs": [],
      "name": "MINT_COST",
      "outputs": [
        {
          "internalType": "uint256",
          "name": "",
          "type": "uint256"
        }
      ],
      "stateMutability": "view",
      "type": "function"
    },
    {
      "inputs": [
        {
          "internalType": "uint256",
          "name": "",
          "type": "uint256"
        }
      ],
      "name": "NFTsId",
      "outputs": [
        {
          "internalType": "uint256",
          "name": "",
          "type": "uint256"
        }
      ],
      "stateMutability": "view",
      "type": "function"
    },
    {
      "inputs": [],
      "name": "RAFFLE_FINALIZATION_BLOCKNUMBER",
      "outputs": [
        {
          "internalType": "uint256",
          "name": "",
          "type": "uint256"
        }
      ],
      "stateMutability": "view",
      "type": "function"
    },
    {
      "inputs": [],
      "name": "WORDS_AMOUNT",
      "outputs": [
        {
          "internalType": "uint32",
          "name": "",
          "type": "uint32"
        }
      ],
      "stateMutability": "view",
      "type": "function"
    },
    {
      "inputs": [
        {
          "internalType": "address",
          "name": "to",
          "type": "address"
        },
        {
          "internalType": "uint256",
          "name": "tokenId",
          "type": "uint256"
        }
      ],
      "name": "approve",
      "outputs": [],
      "stateMutability": "nonpayable",
      "type": "function"
    },
    {
      "inputs": [
        {
          "internalType": "address",
          "name": "owner",
          "type": "address"
        }
      ],
      "name": "balanceOf",
      "outputs": [
        {
          "internalType": "uint256",
          "name": "",
          "type": "uint256"
        }
      ],
      "stateMutability": "view",
      "type": "function"
    },
    {
      "inputs": [],
      "name": "buyTicket",
      "outputs": [],
      "stateMutability": "payable",
      "type": "function"
    },
    {
      "inputs": [],
      "name": "entropy",
      "outputs": [
        {
          "internalType": "uint256",
          "name": "",
          "type": "uint256"
        }
      ],
      "stateMutability": "view",
      "type": "function"
    },
    {
      "inputs": [
        {
          "internalType": "uint256",
          "name": "tokenId",
          "type": "uint256"
        }
      ],
      "name": "getApproved",
      "outputs": [
        {
          "internalType": "address",
          "name": "",
          "type": "address"
        }
      ],
      "stateMutability": "view",
      "type": "function"
    },
    {
      "inputs": [],
      "name": "getNFTsIdLength",
      "outputs": [
        {
          "internalType": "uint256",
          "name": "",
          "type": "uint256"
        }
      ],
      "stateMutability": "view",
      "type": "function"
    },
    {
      "inputs": [],
      "name": "getRequestId",
      "outputs": [
        {
          "internalType": "uint256",
          "name": "",
          "type": "uint256"
        }
      ],
      "stateMutability": "view",
      "type": "function"
    },
    {
      "inputs": [],
      "name": "getSoldTickets",
      "outputs": [
        {
          "internalType": "uint256",
          "name": "",
          "type": "uint256"
        }
      ],
      "stateMutability": "view",
      "type": "function"
    },
    {
      "inputs": [
        {
          "internalType": "address",
          "name": "owner",
          "type": "address"
        },
        {
          "internalType": "address",
          "name": "operator",
          "type": "address"
        }
      ],
      "name": "isApprovedForAll",
      "outputs": [
        {
          "internalType": "bool",
          "name": "",
          "type": "bool"
        }
      ],
      "stateMutability": "view",
      "type": "function"
    },
    {
      "inputs": [],
      "name": "isRaffleOpen",
      "outputs": [
        {
          "internalType": "bool",
          "name": "",
          "type": "bool"
        }
      ],
      "stateMutability": "view",
      "type": "function"
    },
    {
      "inputs": [],
      "name": "mint",
      "outputs": [],
      "stateMutability": "nonpayable",
      "type": "function"
    },
    {
      "inputs": [],
      "name": "name",
      "outputs": [
        {
          "internalType": "string",
          "name": "",
          "type": "string"
        }
      ],
      "stateMutability": "view",
      "type": "function"
    },
    {
      "inputs": [],
      "name": "owner",
      "outputs": [
        {
          "internalType": "address",
          "name": "",
          "type": "address"
        }
      ],
      "stateMutability": "view",
      "type": "function"
    },
    {
      "inputs": [
        {
          "internalType": "uint256",
          "name": "tokenId",
          "type": "uint256"
        }
      ],
      "name": "ownerOf",
      "outputs": [
        {
          "internalType": "address",
          "name": "",
          "type": "address"
        }
      ],
      "stateMutability": "view",
      "type": "function"
    },
    {
      "inputs": [
        {
          "internalType": "address",
          "name": "",
          "type": "address"
        }
      ],
      "name": "participants",
      "outputs": [
        {
          "internalType": "uint256",
          "name": "tokenId",
          "type": "uint256"
        },
        {
          "internalType": "uint256",
          "name": "randomIndex",
          "type": "uint256"
        },
        {
          "internalType": "uint256",
          "name": "minted",
          "type": "uint256"
        },
        {
          "internalType": "uint256",
          "name": "ownedTickets",
          "type": "uint256"
        }
      ],
      "stateMutability": "view",
      "type": "function"
    },
    {
      "inputs": [],
      "name": "proceedsClaimed",
      "outputs": [
        {
          "internalType": "bool",
          "name": "",
          "type": "bool"
        }
      ],
      "stateMutability": "view",
      "type": "function"
    },
    {
      "inputs": [
        {
          "internalType": "uint256",
          "name": "requestId",
          "type": "uint256"
        },
        {
          "internalType": "uint256[]",
          "name": "randomWords",
          "type": "uint256[]"
        }
      ],
      "name": "rawFulfillRandomWords",
      "outputs": [],
      "stateMutability": "nonpayable",
      "type": "function"
    },
    {
      "inputs": [],
      "name": "renounceOwnership",
      "outputs": [],
      "stateMutability": "nonpayable",
      "type": "function"
    },
    {
      "inputs": [],
      "name": "requestRandomness",
      "outputs": [],
      "stateMutability": "nonpayable",
      "type": "function"
    },
    {
      "inputs": [
        {
          "internalType": "address",
          "name": "from",
          "type": "address"
        },
        {
          "internalType": "address",
          "name": "to",
          "type": "address"
        },
        {
          "internalType": "uint256",
          "name": "tokenId",
          "type": "uint256"
        }
      ],
      "name": "safeTransferFrom",
      "outputs": [],
      "stateMutability": "nonpayable",
      "type": "function"
    },
    {
      "inputs": [
        {
          "internalType": "address",
          "name": "from",
          "type": "address"
        },
        {
          "internalType": "address",
          "name": "to",
          "type": "address"
        },
        {
          "internalType": "uint256",
          "name": "tokenId",
          "type": "uint256"
        },
        {
          "internalType": "bytes",
          "name": "data",
          "type": "bytes"
        }
      ],
      "name": "safeTransferFrom",
      "outputs": [],
      "stateMutability": "nonpayable",
      "type": "function"
    },
    {
      "inputs": [
        {
          "internalType": "address",
          "name": "operator",
          "type": "address"
        },
        {
          "internalType": "bool",
          "name": "approved",
          "type": "bool"
        }
      ],
      "name": "setApprovalForAll",
      "outputs": [],
      "stateMutability": "nonpayable",
      "type": "function"
    },
    {
      "inputs": [
        {
          "internalType": "bytes4",
          "name": "interfaceId",
          "type": "bytes4"
        }
      ],
      "name": "supportsInterface",
      "outputs": [
        {
          "internalType": "bool",
          "name": "",
          "type": "bool"
        }
      ],
      "stateMutability": "view",
      "type": "function"
    },
    {
      "inputs": [],
      "name": "symbol",
      "outputs": [
        {
          "internalType": "string",
          "name": "",
          "type": "string"
        }
      ],
      "stateMutability": "view",
      "type": "function"
    },
    {
      "inputs": [
        {
          "internalType": "uint256",
          "name": "tokenId",
          "type": "uint256"
        }
      ],
      "name": "tokenURI",
      "outputs": [
        {
          "internalType": "string",
          "name": "",
          "type": "string"
        }
      ],
      "stateMutability": "view",
      "type": "function"
    },
    {
      "inputs": [
        {
          "internalType": "address",
          "name": "from",
          "type": "address"
        },
        {
          "internalType": "address",
          "name": "to",
          "type": "address"
        },
        {
          "internalType": "uint256",
          "name": "tokenId",
          "type": "uint256"
        }
      ],
      "name": "transferFrom",
      "outputs": [],
      "stateMutability": "nonpayable",
      "type": "function"
    },
    {
      "inputs": [
        {
          "internalType": "address",
          "name": "newOwner",
          "type": "address"
        }
      ],
      "name": "transferOwnership",
      "outputs": [],
      "stateMutability": "nonpayable",
      "type": "function"
    },
    {
      "inputs": [],
      "name": "withdrawRaffleProceeds",
      "outputs": [],
      "stateMutability": "nonpayable",
      "type": "function"
    }
  ],
  "transactionHash": "0xc9af7c3d2a6d93b4c604383627c842df61f0a1f9e86b7a881cb286464d0574e6",
  "args": [
    "0x9fE46736679d2D9a65F0992F2272dE9f3c7fa6e0",
    "0xd89b2bf150e3b9e13446986e571fb9cab24b13cea0a43ea20a6049a85cc807cc",
    "1",
    5,
    "100000000000000000",
    1000
  ],
  "numDeployments": 1,
  "solcInputHash": "49da93177a0edbba5634abd7bd0871c9",
  "bytecode": "0x6101606040526001610100908152506000600a60006101000a81548160ff0219169083151502179055503480156200003657600080fd5b50604051620049a6380380620049a683398181016040528101906200005c919062000389565b6040518060400160405280600a81526020017f52616e646f6d204e4654000000000000000000000000000000000000000000008152506040518060400160405280600481526020017f724e465400000000000000000000000000000000000000000000000000000000815250878073ffffffffffffffffffffffffffffffffffffffff1660808173ffffffffffffffffffffffffffffffffffffffff1660601b81525050508160009080519060200190620001199291906200027d565b508060019080519060200190620001329291906200027d565b5050506200015562000149620001af60201b60201c565b620001b760201b60201c565b8260c081815250508160e08181525050804362000173919062000425565b60a081815250508461012081815250508367ffffffffffffffff166101408167ffffffffffffffff1660c01b81525050505050505050620005df565b600033905090565b6000600660009054906101000a900473ffffffffffffffffffffffffffffffffffffffff16905081600660006101000a81548173ffffffffffffffffffffffffffffffffffffffff021916908373ffffffffffffffffffffffffffffffffffffffff1602179055508173ffffffffffffffffffffffffffffffffffffffff168173ffffffffffffffffffffffffffffffffffffffff167f8be0079c531659141344cd1fd0a4f28419497f9722a3daafe3b4186f6b6457e060405160405180910390a35050565b8280546200028b90620004de565b90600052602060002090601f016020900481019282620002af5760008555620002fb565b82601f10620002ca57805160ff1916838001178555620002fb565b82800160010185558215620002fb579182015b82811115620002fa578251825591602001919060010190620002dd565b5b5090506200030a91906200030e565b5090565b5b80821115620003295760008160009055506001016200030f565b5090565b6000815190506200033e8162000577565b92915050565b600081519050620003558162000591565b92915050565b6000815190506200036c81620005ab565b92915050565b6000815190506200038381620005c5565b92915050565b60008060008060008060c08789031215620003a957620003a862000572565b5b6000620003b989828a016200032d565b9650506020620003cc89828a0162000344565b9550506040620003df89828a0162000372565b9450506060620003f289828a016200035b565b93505060806200040589828a016200035b565b92505060a06200041889828a016200035b565b9150509295509295509295565b60006200043282620004c0565b91506200043f83620004c0565b9250827fffffffffffffffffffffffffffffffffffffffffffffffffffffffffffffffff0382111562000477576200047662000514565b5b828201905092915050565b60006200048f82620004a0565b9050919050565b6000819050919050565b600073ffffffffffffffffffffffffffffffffffffffff82169050919050565b6000819050919050565b600067ffffffffffffffff82169050919050565b60006002820490506001821680620004f757607f821691505b602082108114156200050e576200050d62000543565b5b50919050565b7f4e487b7100000000000000000000000000000000000000000000000000000000600052601160045260246000fd5b7f4e487b7100000000000000000000000000000000000000000000000000000000600052602260045260246000fd5b600080fd5b620005828162000482565b81146200058e57600080fd5b50565b6200059c8162000496565b8114620005a857600080fd5b50565b620005b681620004c0565b8114620005c257600080fd5b50565b620005d081620004ca565b8114620005dc57600080fd5b50565b60805160601c60a05160c05160e05161010051610120516101405160c01c6143276200067f6000396000611abb01526000611a9a015260008181610bb101528181610c5a01526116f7015260008181611536015261179b01526000818161091a015281816114b0015261168c01526000818161094c015281816115d401526117fe015260008181610f5d01528181610fb10152611a5e01526143276000f3fe60806040526004361061020f5760003560e01c80636352211e11610118578063c662e481116100a0578063e6f8bff71161006f578063e6f8bff714610782578063e985e9c5146107ad578063edca914c146107ea578063f2fde38b146107f4578063f8413b071461081d5761020f565b8063c662e481146106c4578063c87b56dd146106ef578063d089adc71461072c578063d60ed9a8146107575761020f565b80638da5cb5b116100e75780638da5cb5b146105f157806395d89b411461061c578063a22cb46514610647578063b438e12e14610670578063b88d4fde1461069b5761020f565b80636352211e1461052357806370a0823114610560578063715018a61461059d5780637885142d146105b45761020f565b80631fe543e31161019b57806342842e0e1161016a57806342842e0e146104625780634694ad9c1461048b57806347ce07cc146104b657806355003593146104e15780635bc46074146104f85761020f565b80631fe543e3146103ba57806323b872dd146103e35780632aa51bdf1461040c57806333d608f1146104375761020f565b8063081812fc116101e2578063081812fc146102d2578063095ea7b31461030f57806309e69ede146103385780630aaef285146103785780631249c58b146103a35761020f565b806301ffc9a714610214578063060cb05d1461025157806306fdde031461027c578063077001b9146102a7575b600080fd5b34801561022057600080fd5b5061023b60048036038101906102369190612d30565b610834565b60405161024891906133c6565b60405180910390f35b34801561025d57600080fd5b50610266610916565b60405161027391906133c6565b60405180910390f35b34801561028857600080fd5b50610291610985565b60405161029e9190613434565b60405180910390f35b3480156102b357600080fd5b506102bc610a17565b6040516102c991906137b1565b60405180910390f35b3480156102de57600080fd5b506102f960048036038101906102f49190612d8a565b610a21565b6040516103069190613336565b60405180910390f35b34801561031b57600080fd5b5061033660048036038101906103319190612cf0565b610a67565b005b34801561034457600080fd5b5061035f600480360381019061035a9190612b6d565b610b7f565b60405161036f94939291906137cc565b60405180910390f35b34801561038457600080fd5b5061038d610baf565b60405161039a91906137b1565b60405180910390f35b3480156103af57600080fd5b506103b8610bd3565b005b3480156103c657600080fd5b506103e160048036038101906103dc9190612de4565b610f5b565b005b3480156103ef57600080fd5b5061040a60048036038101906104059190612bda565b61101b565b005b34801561041857600080fd5b5061042161107b565b60405161042e91906137b1565b60405180910390f35b34801561044357600080fd5b5061044c61108c565b6040516104599190613811565b60405180910390f35b34801561046e57600080fd5b5061048960048036038101906104849190612bda565b611093565b005b34801561049757600080fd5b506104a06110b3565b6040516104ad9190613811565b60405180910390f35b3480156104c257600080fd5b506104cb6110b8565b6040516104d891906137b1565b60405180910390f35b3480156104ed57600080fd5b506104f66110be565b005b34801561050457600080fd5b5061050d611227565b60405161051a91906133c6565b60405180910390f35b34801561052f57600080fd5b5061054a60048036038101906105459190612d8a565b61123a565b6040516105579190613336565b60405180910390f35b34801561056c57600080fd5b5061058760048036038101906105829190612b6d565b6112ec565b60405161059491906137b1565b60405180910390f35b3480156105a957600080fd5b506105b26113a4565b005b3480156105c057600080fd5b506105db60048036038101906105d69190612d8a565b6113b8565b6040516105e891906137b1565b60405180910390f35b3480156105fd57600080fd5b506106066113dc565b6040516106139190613336565b60405180910390f35b34801561062857600080fd5b50610631611406565b60405161063e9190613434565b60405180910390f35b34801561065357600080fd5b5061066e60048036038101906106699190612cb0565b611498565b005b34801561067c57600080fd5b506106856114ae565b60405161069291906137b1565b60405180910390f35b3480156106a757600080fd5b506106c260048036038101906106bd9190612c2d565b6114d2565b005b3480156106d057600080fd5b506106d9611534565b6040516106e691906137b1565b60405180910390f35b3480156106fb57600080fd5b5061071660048036038101906107119190612d8a565b611558565b6040516107239190613434565b60405180910390f35b34801561073857600080fd5b506107416115c0565b60405161074e9190613796565b60405180910390f35b34801561076357600080fd5b5061076c6115c5565b60405161077991906137b1565b60405180910390f35b34801561078e57600080fd5b506107976115d2565b6040516107a491906137b1565b60405180910390f35b3480156107b957600080fd5b506107d460048036038101906107cf9190612b9a565b6115f6565b6040516107e191906133c6565b60405180910390f35b6107f261168a565b005b34801561080057600080fd5b5061081b60048036038101906108169190612b6d565b61194c565b005b34801561082957600080fd5b506108326119d0565b005b60007f80ac58cd000000000000000000000000000000000000000000000000000000007bffffffffffffffffffffffffffffffffffffffffffffffffffffffff1916827bffffffffffffffffffffffffffffffffffffffffffffffffffffffff191614806108ff57507f5b5e139f000000000000000000000000000000000000000000000000000000007bffffffffffffffffffffffffffffffffffffffffffffffffffffffff1916827bffffffffffffffffffffffffffffffffffffffffffffffffffffffff1916145b8061090f575061090e82611b5c565b5b9050919050565b60007f0000000000000000000000000000000000000000000000000000000000000000610943600b611bc6565b148061096f57507f00000000000000000000000000000000000000000000000000000000000000004310155b1561097d5760019050610982565b600090505b90565b60606000805461099490613ad3565b80601f01602080910402602001604051908101604052809291908181526020018280546109c090613ad3565b8015610a0d5780601f106109e257610100808354040283529160200191610a0d565b820191906000526020600020905b8154815290600101906020018083116109f057829003601f168201915b5050505050905090565b6000600c54905090565b6000610a2c82611bd4565b6004600083815260200190815260200160002060009054906101000a900473ffffffffffffffffffffffffffffffffffffffff169050919050565b6000610a728261123a565b90508073ffffffffffffffffffffffffffffffffffffffff168373ffffffffffffffffffffffffffffffffffffffff161415610ae3576040517f08c379a0000000000000000000000000000000000000000000000000000000008152600401610ada90613736565b60405180910390fd5b8073ffffffffffffffffffffffffffffffffffffffff16610b02611c1f565b73ffffffffffffffffffffffffffffffffffffffff161480610b315750610b3081610b2b611c1f565b6115f6565b5b610b70576040517f08c379a0000000000000000000000000000000000000000000000000000000008152600401610b6790613676565b60405180910390fd5b610b7a8383611c27565b505050565b60076020528060005260406000206000915090508060000154908060010154908060020154908060030154905084565b7f000000000000000000000000000000000000000000000000000000000000000081565b6000600760003373ffffffffffffffffffffffffffffffffffffffff1673ffffffffffffffffffffffffffffffffffffffff1681526020019081526020016000206003015411610c58576040517f08c379a0000000000000000000000000000000000000000000000000000000008152600401610c4f90613556565b60405180910390fd5b7f0000000000000000000000000000000000000000000000000000000000000000600760003373ffffffffffffffffffffffffffffffffffffffff1673ffffffffffffffffffffffffffffffffffffffff1681526020019081526020016000206002015410610cfc576040517f08c379a0000000000000000000000000000000000000000000000000000000008152600401610cf390613756565b60405180910390fd5b610d04610916565b610d43576040517f08c379a0000000000000000000000000000000000000000000000000000000008152600401610d3a90613576565b60405180910390fd5b60006009541415610d89576040517f08c379a0000000000000000000000000000000000000000000000000000000008152600401610d80906135f6565b60405180910390fd5b6000610d93611ce0565b9050600060088281548110610dab57610daa613c6c565b5b90600052602060002001549050610dc23382611cfa565b610dcb82611ed4565b81600760003373ffffffffffffffffffffffffffffffffffffffff1673ffffffffffffffffffffffffffffffffffffffff1681526020019081526020016000206001018190555080600760003373ffffffffffffffffffffffffffffffffffffffff1673ffffffffffffffffffffffffffffffffffffffff16815260200190815260200160002060000181905550600760003373ffffffffffffffffffffffffffffffffffffffff1673ffffffffffffffffffffffffffffffffffffffff1681526020019081526020016000206003016000815480929190610eac90613aa9565b9190505550600760003373ffffffffffffffffffffffffffffffffffffffff1673ffffffffffffffffffffffffffffffffffffffff1681526020019081526020016000206002016000815480929190610f0490613b36565b91905055503373ffffffffffffffffffffffffffffffffffffffff167f30385c845b448a36257a6a1716e6ad2e1bc2cbe333cde1e69fe849ad6511adfe82604051610f4f91906137b1565b60405180910390a25050565b7f000000000000000000000000000000000000000000000000000000000000000073ffffffffffffffffffffffffffffffffffffffff163373ffffffffffffffffffffffffffffffffffffffff161461100d57337f00000000000000000000000000000000000000000000000000000000000000006040517f1cf993f4000000000000000000000000000000000000000000000000000000008152600401611004929190613351565b60405180910390fd5b6110178282611f62565b5050565b61102c611026611c1f565b82612011565b61106b576040517f08c379a000000000000000000000000000000000000000000000000000000000815260040161106290613776565b60405180910390fd5b6110768383836120a6565b505050565b6000611087600b611bc6565b905090565b62124f8081565b6110ae838383604051806020016040528060008152506114d2565b505050565b600a81565b60095481565b6110c661230d565b6110ce610916565b61110d576040517f08c379a000000000000000000000000000000000000000000000000000000000815260040161110490613576565b60405180910390fd5b600a60009054906101000a900460ff161561115d576040517f08c379a000000000000000000000000000000000000000000000000000000000815260040161115490613476565b60405180910390fd5b6001600a60006101000a81548160ff02191690831515021790555060003373ffffffffffffffffffffffffffffffffffffffff164760405161119e90613321565b60006040518083038185875af1925050503d80600081146111db576040519150601f19603f3d011682016040523d82523d6000602084013e6111e0565b606091505b5050905080611224576040517f08c379a000000000000000000000000000000000000000000000000000000000815260040161121b90613496565b60405180910390fd5b50565b600a60009054906101000a900460ff1681565b6000806002600084815260200190815260200160002060009054906101000a900473ffffffffffffffffffffffffffffffffffffffff169050600073ffffffffffffffffffffffffffffffffffffffff168173ffffffffffffffffffffffffffffffffffffffff1614156112e3576040517f08c379a00000000000000000000000000000000000000000000000000000000081526004016112da90613716565b60405180910390fd5b80915050919050565b60008073ffffffffffffffffffffffffffffffffffffffff168273ffffffffffffffffffffffffffffffffffffffff16141561135d576040517f08c379a000000000000000000000000000000000000000000000000000000000815260040161135490613656565b60405180910390fd5b600360008373ffffffffffffffffffffffffffffffffffffffff1673ffffffffffffffffffffffffffffffffffffffff168152602001908152602001600020549050919050565b6113ac61230d565b6113b6600061238b565b565b600881815481106113c857600080fd5b906000526020600020016000915090505481565b6000600660009054906101000a900473ffffffffffffffffffffffffffffffffffffffff16905090565b60606001805461141590613ad3565b80601f016020809104026020016040519081016040528092919081815260200182805461144190613ad3565b801561148e5780601f106114635761010080835404028352916020019161148e565b820191906000526020600020905b81548152906001019060200180831161147157829003601f168201915b5050505050905090565b6114aa6114a3611c1f565b8383612451565b5050565b7f000000000000000000000000000000000000000000000000000000000000000081565b6114e36114dd611c1f565b83612011565b611522576040517f08c379a000000000000000000000000000000000000000000000000000000000815260040161151990613776565b60405180910390fd5b61152e848484846125be565b50505050565b7f000000000000000000000000000000000000000000000000000000000000000081565b606061156382611bd4565b600061156d61261a565b9050600081511161158d57604051806020016040528060008152506115b8565b806115978461263a565b6040516020016115a89291906132fd565b6040516020818303038152906040525b915050919050565b600381565b6000600880549050905090565b7f000000000000000000000000000000000000000000000000000000000000000081565b6000600560008473ffffffffffffffffffffffffffffffffffffffff1673ffffffffffffffffffffffffffffffffffffffff16815260200190815260200160002060008373ffffffffffffffffffffffffffffffffffffffff1673ffffffffffffffffffffffffffffffffffffffff16815260200190815260200160002060009054906101000a900460ff16905092915050565b7f00000000000000000000000000000000000000000000000000000000000000006116b5600b611bc6565b106116f5576040517f08c379a00000000000000000000000000000000000000000000000000000000081526004016116ec906136b6565b60405180910390fd5b7f0000000000000000000000000000000000000000000000000000000000000000600760003373ffffffffffffffffffffffffffffffffffffffff1673ffffffffffffffffffffffffffffffffffffffff1681526020019081526020016000206003015410611799576040517f08c379a000000000000000000000000000000000000000000000000000000000815260040161179090613616565b60405180910390fd5b7f00000000000000000000000000000000000000000000000000000000000000003410156117fc576040517f08c379a00000000000000000000000000000000000000000000000000000000081526004016117f3906136d6565b60405180910390fd5b7f000000000000000000000000000000000000000000000000000000000000000043111561185f576040517f08c379a0000000000000000000000000000000000000000000000000000000008152600401611856906135d6565b60405180910390fd5b600760003373ffffffffffffffffffffffffffffffffffffffff1673ffffffffffffffffffffffffffffffffffffffff16815260200190815260200160002060030160008154809291906118b290613b36565b91905055506118c1600b61279b565b60086118cd600b611bc6565b90806001815401808255809150506001900390600052602060002001600090919091909150553373ffffffffffffffffffffffffffffffffffffffff167f8ef92257fbc070823c8bb4051ff3a58b831946d893fbb1bfd9bc77b87ff77d09611935600b611bc6565b60405161194291906137b1565b60405180910390a2565b61195461230d565b600073ffffffffffffffffffffffffffffffffffffffff168173ffffffffffffffffffffffffffffffffffffffff1614156119c4576040517f08c379a00000000000000000000000000000000000000000000000000000000081526004016119bb906134d6565b60405180910390fd5b6119cd8161238b565b50565b6000600c5414611a15576040517f08c379a0000000000000000000000000000000000000000000000000000000008152600401611a0c90613456565b60405180910390fd5b611a1d610916565b611a5c576040517f08c379a0000000000000000000000000000000000000000000000000000000008152600401611a5390613576565b60405180910390fd5b7f000000000000000000000000000000000000000000000000000000000000000073ffffffffffffffffffffffffffffffffffffffff16635d3b1d307f00000000000000000000000000000000000000000000000000000000000000007f0000000000000000000000000000000000000000000000000000000000000000600362124f80600a6040518663ffffffff1660e01b8152600401611b029594939291906133e1565b602060405180830381600087803b158015611b1c57600080fd5b505af1158015611b30573d6000803e3d6000fd5b505050506040513d601f19601f82011682018060405250810190611b549190612db7565b600c81905550565b60007f01ffc9a7000000000000000000000000000000000000000000000000000000007bffffffffffffffffffffffffffffffffffffffffffffffffffffffff1916827bffffffffffffffffffffffffffffffffffffffffffffffffffffffff1916149050919050565b600081600001549050919050565b611bdd816127b1565b611c1c576040517f08c379a0000000000000000000000000000000000000000000000000000000008152600401611c1390613716565b60405180910390fd5b50565b600033905090565b816004600083815260200190815260200160002060006101000a81548173ffffffffffffffffffffffffffffffffffffffff021916908373ffffffffffffffffffffffffffffffffffffffff160217905550808273ffffffffffffffffffffffffffffffffffffffff16611c9a8361123a565b73ffffffffffffffffffffffffffffffffffffffff167f8c5be1e5ebec7d5bd14f71427d1e84f3dd0314c0f7b2291e5b200ac8c7c3b92560405160405180910390a45050565b6000600880549050600954611cf59190613b7f565b905090565b600073ffffffffffffffffffffffffffffffffffffffff168273ffffffffffffffffffffffffffffffffffffffff161415611d6a576040517f08c379a0000000000000000000000000000000000000000000000000000000008152600401611d6190613696565b60405180910390fd5b611d73816127b1565b15611db3576040517f08c379a0000000000000000000000000000000000000000000000000000000008152600401611daa90613516565b60405180910390fd5b611dbf6000838361281d565b6001600360008473ffffffffffffffffffffffffffffffffffffffff1673ffffffffffffffffffffffffffffffffffffffff1681526020019081526020016000206000828254611e0f91906138fc565b92505081905550816002600083815260200190815260200160002060006101000a81548173ffffffffffffffffffffffffffffffffffffffff021916908373ffffffffffffffffffffffffffffffffffffffff160217905550808273ffffffffffffffffffffffffffffffffffffffff16600073ffffffffffffffffffffffffffffffffffffffff167fddf252ad1be2c89b69c2b068fc378daa952ba7f163c4a11628f55a4df523b3ef60405160405180910390a4611ed060008383612822565b5050565b6008805490508110611ee557600080fd5b60086001600880549050611ef99190613983565b81548110611f0a57611f09613c6c565b5b906000526020600020015460088281548110611f2957611f28613c6c565b5b90600052602060002001819055506008805480611f4957611f48613c3d565b5b6001900381819060005260206000200160009055905550565b81600c5414611fa6576040517f08c379a0000000000000000000000000000000000000000000000000000000008152600401611f9d90613636565b60405180910390fd5b600060095414611feb576040517f08c379a0000000000000000000000000000000000000000000000000000000008152600401611fe290613536565b60405180910390fd5b80600081518110611fff57611ffe613c6c565b5b60200260200101516009819055505050565b60008061201d8361123a565b90508073ffffffffffffffffffffffffffffffffffffffff168473ffffffffffffffffffffffffffffffffffffffff16148061205f575061205e81856115f6565b5b8061209d57508373ffffffffffffffffffffffffffffffffffffffff1661208584610a21565b73ffffffffffffffffffffffffffffffffffffffff16145b91505092915050565b8273ffffffffffffffffffffffffffffffffffffffff166120c68261123a565b73ffffffffffffffffffffffffffffffffffffffff161461211c576040517f08c379a0000000000000000000000000000000000000000000000000000000008152600401612113906134f6565b60405180910390fd5b600073ffffffffffffffffffffffffffffffffffffffff168273ffffffffffffffffffffffffffffffffffffffff16141561218c576040517f08c379a000000000000000000000000000000000000000000000000000000000815260040161218390613596565b60405180910390fd5b61219783838361281d565b6121a2600082611c27565b6001600360008573ffffffffffffffffffffffffffffffffffffffff1673ffffffffffffffffffffffffffffffffffffffff16815260200190815260200160002060008282546121f29190613983565b925050819055506001600360008473ffffffffffffffffffffffffffffffffffffffff1673ffffffffffffffffffffffffffffffffffffffff168152602001908152602001600020600082825461224991906138fc565b92505081905550816002600083815260200190815260200160002060006101000a81548173ffffffffffffffffffffffffffffffffffffffff021916908373ffffffffffffffffffffffffffffffffffffffff160217905550808273ffffffffffffffffffffffffffffffffffffffff168473ffffffffffffffffffffffffffffffffffffffff167fddf252ad1be2c89b69c2b068fc378daa952ba7f163c4a11628f55a4df523b3ef60405160405180910390a4612308838383612822565b505050565b612315611c1f565b73ffffffffffffffffffffffffffffffffffffffff166123336113dc565b73ffffffffffffffffffffffffffffffffffffffff1614612389576040517f08c379a0000000000000000000000000000000000000000000000000000000008152600401612380906136f6565b60405180910390fd5b565b6000600660009054906101000a900473ffffffffffffffffffffffffffffffffffffffff16905081600660006101000a81548173ffffffffffffffffffffffffffffffffffffffff021916908373ffffffffffffffffffffffffffffffffffffffff1602179055508173ffffffffffffffffffffffffffffffffffffffff168173ffffffffffffffffffffffffffffffffffffffff167f8be0079c531659141344cd1fd0a4f28419497f9722a3daafe3b4186f6b6457e060405160405180910390a35050565b8173ffffffffffffffffffffffffffffffffffffffff168373ffffffffffffffffffffffffffffffffffffffff1614156124c0576040517f08c379a00000000000000000000000000000000000000000000000000000000081526004016124b7906135b6565b60405180910390fd5b80600560008573ffffffffffffffffffffffffffffffffffffffff1673ffffffffffffffffffffffffffffffffffffffff16815260200190815260200160002060008473ffffffffffffffffffffffffffffffffffffffff1673ffffffffffffffffffffffffffffffffffffffff16815260200190815260200160002060006101000a81548160ff0219169083151502179055508173ffffffffffffffffffffffffffffffffffffffff168373ffffffffffffffffffffffffffffffffffffffff167f17307eab39ab6107e8899845ad3d59bd9653f200f220920489ca2b5937696c31836040516125b191906133c6565b60405180910390a3505050565b6125c98484846120a6565b6125d584848484612827565b612614576040517f08c379a000000000000000000000000000000000000000000000000000000000815260040161260b906134b6565b60405180910390fd5b50505050565b60606040518060800160405280604481526020016142ae60449139905090565b60606000821415612682576040518060400160405280600181526020017f30000000000000000000000000000000000000000000000000000000000000008152509050612796565b600082905060005b600082146126b457808061269d90613b36565b915050600a826126ad9190613952565b915061268a565b60008167ffffffffffffffff8111156126d0576126cf613c9b565b5b6040519080825280601f01601f1916602001820160405280156127025781602001600182028036833780820191505090505b5090505b6000851461278f5760018261271b9190613983565b9150600a8561272a9190613b7f565b603061273691906138fc565b60f81b81838151811061274c5761274b613c6c565b5b60200101907effffffffffffffffffffffffffffffffffffffffffffffffffffffffffffff1916908160001a905350600a856127889190613952565b9450612706565b8093505050505b919050565b6001816000016000828254019250508190555050565b60008073ffffffffffffffffffffffffffffffffffffffff166002600084815260200190815260200160002060009054906101000a900473ffffffffffffffffffffffffffffffffffffffff1673ffffffffffffffffffffffffffffffffffffffff1614159050919050565b505050565b505050565b60006128488473ffffffffffffffffffffffffffffffffffffffff166129be565b156129b1578373ffffffffffffffffffffffffffffffffffffffff1663150b7a02612871611c1f565b8786866040518563ffffffff1660e01b8152600401612893949392919061337a565b602060405180830381600087803b1580156128ad57600080fd5b505af19250505080156128de57506040513d601f19601f820116820180604052508101906128db9190612d5d565b60015b612961573d806000811461290e576040519150601f19603f3d011682016040523d82523d6000602084013e612913565b606091505b50600081511415612959576040517f08c379a0000000000000000000000000000000000000000000000000000000008152600401612950906134b6565b60405180910390fd5b805181602001fd5b63150b7a0260e01b7bffffffffffffffffffffffffffffffffffffffffffffffffffffffff1916817bffffffffffffffffffffffffffffffffffffffffffffffffffffffff1916149150506129b6565b600190505b949350505050565b6000808273ffffffffffffffffffffffffffffffffffffffff163b119050919050565b60006129f46129ef84613851565b61382c565b90508083825260208201905082856020860282011115612a1757612a16613ccf565b5b60005b85811015612a475781612a2d8882612b43565b845260208401935060208301925050600181019050612a1a565b5050509392505050565b6000612a64612a5f8461387d565b61382c565b905082815260208101848484011115612a8057612a7f613cd4565b5b612a8b848285613a67565b509392505050565b600081359050612aa281614251565b92915050565b600082601f830112612abd57612abc613cca565b5b8135612acd8482602086016129e1565b91505092915050565b600081359050612ae581614268565b92915050565b600081359050612afa8161427f565b92915050565b600081519050612b0f8161427f565b92915050565b600082601f830112612b2a57612b29613cca565b5b8135612b3a848260208601612a51565b91505092915050565b600081359050612b5281614296565b92915050565b600081519050612b6781614296565b92915050565b600060208284031215612b8357612b82613cde565b5b6000612b9184828501612a93565b91505092915050565b60008060408385031215612bb157612bb0613cde565b5b6000612bbf85828601612a93565b9250506020612bd085828601612a93565b9150509250929050565b600080600060608486031215612bf357612bf2613cde565b5b6000612c0186828701612a93565b9350506020612c1286828701612a93565b9250506040612c2386828701612b43565b9150509250925092565b60008060008060808587031215612c4757612c46613cde565b5b6000612c5587828801612a93565b9450506020612c6687828801612a93565b9350506040612c7787828801612b43565b925050606085013567ffffffffffffffff811115612c9857612c97613cd9565b5b612ca487828801612b15565b91505092959194509250565b60008060408385031215612cc757612cc6613cde565b5b6000612cd585828601612a93565b9250506020612ce685828601612ad6565b9150509250929050565b60008060408385031215612d0757612d06613cde565b5b6000612d1585828601612a93565b9250506020612d2685828601612b43565b9150509250929050565b600060208284031215612d4657612d45613cde565b5b6000612d5484828501612aeb565b91505092915050565b600060208284031215612d7357612d72613cde565b5b6000612d8184828501612b00565b91505092915050565b600060208284031215612da057612d9f613cde565b5b6000612dae84828501612b43565b91505092915050565b600060208284031215612dcd57612dcc613cde565b5b6000612ddb84828501612b58565b91505092915050565b60008060408385031215612dfb57612dfa613cde565b5b6000612e0985828601612b43565b925050602083013567ffffffffffffffff811115612e2a57612e29613cd9565b5b612e3685828601612aa8565b9150509250929050565b612e49816139b7565b82525050565b612e58816139c9565b82525050565b612e67816139d5565b82525050565b6000612e78826138ae565b612e8281856138c4565b9350612e92818560208601613a76565b612e9b81613ce3565b840191505092915050565b6000612eb1826138b9565b612ebb81856138e0565b9350612ecb818560208601613a76565b612ed481613ce3565b840191505092915050565b6000612eea826138b9565b612ef481856138f1565b9350612f04818560208601613a76565b80840191505092915050565b6000612f1d6018836138e0565b9150612f2882613cf4565b602082019050919050565b6000612f406018836138e0565b9150612f4b82613d1d565b602082019050919050565b6000612f636016836138e0565b9150612f6e82613d46565b602082019050919050565b6000612f866032836138e0565b9150612f9182613d6f565b604082019050919050565b6000612fa96026836138e0565b9150612fb482613dbe565b604082019050919050565b6000612fcc6025836138e0565b9150612fd782613e0d565b604082019050919050565b6000612fef601c836138e0565b9150612ffa82613e5c565b602082019050919050565b60006130126013836138e0565b915061301d82613e85565b602082019050919050565b6000613035601d836138e0565b915061304082613eae565b602082019050919050565b60006130586011836138e0565b915061306382613ed7565b602082019050919050565b600061307b6024836138e0565b915061308682613f00565b604082019050919050565b600061309e6019836138e0565b91506130a982613f4f565b602082019050919050565b60006130c16010836138e0565b91506130cc82613f78565b602082019050919050565b60006130e46012836138e0565b91506130ef82613fa1565b602082019050919050565b60006131076013836138e0565b915061311282613fca565b602082019050919050565b600061312a6016836138e0565b915061313582613ff3565b602082019050919050565b600061314d6029836138e0565b91506131588261401c565b604082019050919050565b6000613170603e836138e0565b915061317b8261406b565b604082019050919050565b60006131936020836138e0565b915061319e826140ba565b602082019050919050565b60006131b66010836138e0565b91506131c1826140e3565b602082019050919050565b60006131d96014836138e0565b91506131e48261410c565b602082019050919050565b60006131fc6020836138e0565b915061320782614135565b602082019050919050565b600061321f6018836138e0565b915061322a8261415e565b602082019050919050565b60006132426021836138e0565b915061324d82614187565b604082019050919050565b60006132656000836138d5565b9150613270826141d6565b600082019050919050565b6000613288601c836138e0565b9150613293826141d9565b602082019050919050565b60006132ab602e836138e0565b91506132b682614202565b604082019050919050565b6132ca81613a0b565b82525050565b6132d981613a39565b82525050565b6132e881613a43565b82525050565b6132f781613a53565b82525050565b60006133098285612edf565b91506133158284612edf565b91508190509392505050565b600061332c82613258565b9150819050919050565b600060208201905061334b6000830184612e40565b92915050565b60006040820190506133666000830185612e40565b6133736020830184612e40565b9392505050565b600060808201905061338f6000830187612e40565b61339c6020830186612e40565b6133a960408301856132d0565b81810360608301526133bb8184612e6d565b905095945050505050565b60006020820190506133db6000830184612e4f565b92915050565b600060a0820190506133f66000830188612e5e565b61340360208301876132ee565b61341060408301866132c1565b61341d60608301856132df565b61342a60808301846132df565b9695505050505050565b6000602082019050818103600083015261344e8184612ea6565b905092915050565b6000602082019050818103600083015261346f81612f10565b9050919050565b6000602082019050818103600083015261348f81612f33565b9050919050565b600060208201905081810360008301526134af81612f56565b9050919050565b600060208201905081810360008301526134cf81612f79565b9050919050565b600060208201905081810360008301526134ef81612f9c565b9050919050565b6000602082019050818103600083015261350f81612fbf565b9050919050565b6000602082019050818103600083015261352f81612fe2565b9050919050565b6000602082019050818103600083015261354f81613005565b9050919050565b6000602082019050818103600083015261356f81613028565b9050919050565b6000602082019050818103600083015261358f8161304b565b9050919050565b600060208201905081810360008301526135af8161306e565b9050919050565b600060208201905081810360008301526135cf81613091565b9050919050565b600060208201905081810360008301526135ef816130b4565b9050919050565b6000602082019050818103600083015261360f816130d7565b9050919050565b6000602082019050818103600083015261362f816130fa565b9050919050565b6000602082019050818103600083015261364f8161311d565b9050919050565b6000602082019050818103600083015261366f81613140565b9050919050565b6000602082019050818103600083015261368f81613163565b9050919050565b600060208201905081810360008301526136af81613186565b9050919050565b600060208201905081810360008301526136cf816131a9565b9050919050565b600060208201905081810360008301526136ef816131cc565b9050919050565b6000602082019050818103600083015261370f816131ef565b9050919050565b6000602082019050818103600083015261372f81613212565b9050919050565b6000602082019050818103600083015261374f81613235565b9050919050565b6000602082019050818103600083015261376f8161327b565b9050919050565b6000602082019050818103600083015261378f8161329e565b9050919050565b60006020820190506137ab60008301846132c1565b92915050565b60006020820190506137c660008301846132d0565b92915050565b60006080820190506137e160008301876132d0565b6137ee60208301866132d0565b6137fb60408301856132d0565b61380860608301846132d0565b95945050505050565b600060208201905061382660008301846132df565b92915050565b6000613836613847565b90506138428282613b05565b919050565b6000604051905090565b600067ffffffffffffffff82111561386c5761386b613c9b565b5b602082029050602081019050919050565b600067ffffffffffffffff82111561389857613897613c9b565b5b6138a182613ce3565b9050602081019050919050565b600081519050919050565b600081519050919050565b600082825260208201905092915050565b600081905092915050565b600082825260208201905092915050565b600081905092915050565b600061390782613a39565b915061391283613a39565b9250827fffffffffffffffffffffffffffffffffffffffffffffffffffffffffffffffff0382111561394757613946613bb0565b5b828201905092915050565b600061395d82613a39565b915061396883613a39565b92508261397857613977613bdf565b5b828204905092915050565b600061398e82613a39565b915061399983613a39565b9250828210156139ac576139ab613bb0565b5b828203905092915050565b60006139c282613a19565b9050919050565b60008115159050919050565b6000819050919050565b60007fffffffff0000000000000000000000000000000000000000000000000000000082169050919050565b600061ffff82169050919050565b600073ffffffffffffffffffffffffffffffffffffffff82169050919050565b6000819050919050565b600063ffffffff82169050919050565b600067ffffffffffffffff82169050919050565b82818337600083830152505050565b60005b83811015613a94578082015181840152602081019050613a79565b83811115613aa3576000848401525b50505050565b6000613ab482613a39565b91506000821415613ac857613ac7613bb0565b5b600182039050919050565b60006002820490506001821680613aeb57607f821691505b60208210811415613aff57613afe613c0e565b5b50919050565b613b0e82613ce3565b810181811067ffffffffffffffff82111715613b2d57613b2c613c9b565b5b80604052505050565b6000613b4182613a39565b91507fffffffffffffffffffffffffffffffffffffffffffffffffffffffffffffffff821415613b7457613b73613bb0565b5b600182019050919050565b6000613b8a82613a39565b9150613b9583613a39565b925082613ba557613ba4613bdf565b5b828206905092915050565b7f4e487b7100000000000000000000000000000000000000000000000000000000600052601160045260246000fd5b7f4e487b7100000000000000000000000000000000000000000000000000000000600052601260045260246000fd5b7f4e487b7100000000000000000000000000000000000000000000000000000000600052602260045260246000fd5b7f4e487b7100000000000000000000000000000000000000000000000000000000600052603160045260246000fd5b7f4e487b7100000000000000000000000000000000000000000000000000000000600052603260045260246000fd5b7f4e487b7100000000000000000000000000000000000000000000000000000000600052604160045260246000fd5b600080fd5b600080fd5b600080fd5b600080fd5b600080fd5b6000601f19601f8301169050919050565b7f72616e646f6d20616c7265616479207265717565737465640000000000000000600082015250565b7f50726f636565647320616c726561647920636c61696d65640000000000000000600082015250565b7f556e7375636365737366756c20696e207061796f757400000000000000000000600082015250565b7f4552433732313a207472616e7366657220746f206e6f6e20455243373231526560008201527f63656976657220696d706c656d656e7465720000000000000000000000000000602082015250565b7f4f776e61626c653a206e6577206f776e657220697320746865207a65726f206160008201527f6464726573730000000000000000000000000000000000000000000000000000602082015250565b7f4552433732313a207472616e736665722066726f6d20696e636f72726563742060008201527f6f776e6572000000000000000000000000000000000000000000000000000000602082015250565b7f4552433732313a20746f6b656e20616c7265616479206d696e74656400000000600082015250565b7f656e74726f707920616c72656164792073657400000000000000000000000000600082015250565b7f4164647265737320646f6573206e6f74206f776e2061207469636b6574000000600082015250565b7f526166666c65207374696c6c206f70656e000000000000000000000000000000600082015250565b7f4552433732313a207472616e7366657220746f20746865207a65726f2061646460008201527f7265737300000000000000000000000000000000000000000000000000000000602082015250565b7f4552433732313a20617070726f766520746f2063616c6c657200000000000000600082015250565b7f526166666c652068617320656e64656400000000000000000000000000000000600082015250565b7f456e74726f7079206973206e6f74207365740000000000000000000000000000600082015250565b7f41646472657373206f776e73207469636b657400000000000000000000000000600082015250565b7f72657175657374496420646f206e6f74206d6174636800000000000000000000600082015250565b7f4552433732313a2061646472657373207a65726f206973206e6f74206120766160008201527f6c6964206f776e65720000000000000000000000000000000000000000000000602082015250565b7f4552433732313a20617070726f76652063616c6c6572206973206e6f7420746f60008201527f6b656e206f776e6572206e6f7220617070726f76656420666f7220616c6c0000602082015250565b7f4552433732313a206d696e7420746f20746865207a65726f2061646472657373600082015250565b7f416c6c207469636b65747320736f6c6400000000000000000000000000000000600082015250565b7f496e73756666696369656e74207061796d656e74000000000000000000000000600082015250565b7f4f776e61626c653a2063616c6c6572206973206e6f7420746865206f776e6572600082015250565b7f4552433732313a20696e76616c696420746f6b656e2049440000000000000000600082015250565b7f4552433732313a20617070726f76616c20746f2063757272656e74206f776e6560008201527f7200000000000000000000000000000000000000000000000000000000000000602082015250565b50565b7f4d617820616c6c6f77207065722061646472657373206d696e74656400000000600082015250565b7f4552433732313a2063616c6c6572206973206e6f7420746f6b656e206f776e6560008201527f72206e6f7220617070726f766564000000000000000000000000000000000000602082015250565b61425a816139b7565b811461426557600080fd5b50565b614271816139c9565b811461427c57600080fd5b50565b614288816139df565b811461429357600080fd5b50565b61429f81613a39565b81146142aa57600080fd5b5056fe68747470733a2f2f697066732e696f2f697066732f516d5178446a45686e5950365141744c52794c56394e37646e316b4469677a3769576e783570736d7958717933352fa26469706673582212209f0c91474c5c68a1ec54ba6e52738a4c72d9d7a704fd6e4dc593ed234d5db5c764736f6c63430008070033",
  "devdoc": {
    "author": "Rloot",
    "events": {
      "Minted(address,uint256)": {
        "params": {
          "tokenId": "Number of the ticket sold",
          "user": "Address of raffle participant"
        }
      },
      "TicketSold(address,uint256)": {
        "params": {
          "ticketId": "Number of the ticket sold",
          "user": "Address of raffle participant"
        }
      }
    },
    "kind": "dev",
    "methods": {
      "approve(address,uint256)": {
        "details": "See {IERC721-approve}."
      },
      "balanceOf(address)": {
        "details": "See {IERC721-balanceOf}."
      },
      "constructor": {
        "params": {
          "_AVAILABLE_SUPPLY": "total NFTs to sell",
          "_MINT_COST": "in wei per ticket"
        }
      },
      "getApproved(uint256)": {
        "details": "See {IERC721-getApproved}."
      },
      "isApprovedForAll(address,address)": {
        "details": "See {IERC721-isApprovedForAll}."
      },
      "name()": {
        "details": "See {IERC721Metadata-name}."
      },
      "owner()": {
        "details": "Returns the address of the current owner."
      },
      "ownerOf(uint256)": {
        "details": "See {IERC721-ownerOf}."
      },
      "renounceOwnership()": {
        "details": "Leaves the contract without owner. It will not be possible to call `onlyOwner` functions anymore. Can only be called by the current owner. NOTE: Renouncing ownership will leave the contract without an owner, thereby removing any functionality that is only available to the owner."
      },
      "safeTransferFrom(address,address,uint256)": {
        "details": "See {IERC721-safeTransferFrom}."
      },
      "safeTransferFrom(address,address,uint256,bytes)": {
        "details": "See {IERC721-safeTransferFrom}."
      },
      "setApprovalForAll(address,bool)": {
        "details": "See {IERC721-setApprovalForAll}."
      },
      "supportsInterface(bytes4)": {
        "details": "See {IERC165-supportsInterface}."
      },
      "symbol()": {
        "details": "See {IERC721Metadata-symbol}."
      },
      "tokenURI(uint256)": {
        "details": "See {IERC721Metadata-tokenURI}."
      },
      "transferFrom(address,address,uint256)": {
        "details": "See {IERC721-transferFrom}."
      },
      "transferOwnership(address)": {
        "details": "Transfers ownership of the contract to a new account (`newOwner`). Can only be called by the current owner."
      }
    },
    "title": "ShuffleOne",
    "version": 1
  },
  "userdoc": {
    "events": {
      "Minted(address,uint256)": {
        "notice": "Emitted after a successful mint "
      },
      "TicketSold(address,uint256)": {
        "notice": "Emitted after a successful ticket sell "
      }
    },
    "kind": "user",
    "methods": {
      "AVAILABLE_SUPPLY()": {
        "notice": "Avalible NFTs to be minted"
      },
      "MAX_PER_ADDRESS()": {
        "notice": "Maximum tickets per address"
      },
      "MINT_COST()": {
        "notice": "Minimum cost for ticket"
      },
      "NFTsId(uint256)": {
        "notice": "Array of NFTs ID to be minted "
      },
      "RAFFLE_FINALIZATION_BLOCKNUMBER()": {
        "notice": "Blocknumber raffle ends at."
      },
      "buyTicket()": {
        "notice": "Enters raffle "
      },
      "constructor": {
        "notice": "Creates a new NFT distribution contract"
      },
      "entropy()": {
        "notice": "Source of entropy"
      },
      "getNFTsIdLength()": {
        "notice": "Get the lengths of the NFTsIds array"
      },
      "getSoldTickets()": {
        "notice": "Get total numbers of tickets sold "
      },
      "mint()": {
        "notice": "Generate rand index for the NFTid, mint NFT and remove it from array "
      },
      "participants(address)": {
        "notice": "Keep track of participants "
      },
      "proceedsClaimed()": {
        "notice": "Owner has claimed raffle proceeds"
      },
      "withdrawRaffleProceeds()": {
        "notice": "Allows contract owner to withdraw proceeds of tickets"
      }
    },
    "notice": "ERC721 randomized distribution",
    "version": 1
  },
  "storageLayout": {
    "storage": [
      {
        "astId": 285,
        "contract": "contracts/ShuffleOne.sol:ShuffleOne",
        "label": "_name",
        "offset": 0,
        "slot": "0",
        "type": "t_string_storage"
      },
      {
        "astId": 287,
        "contract": "contracts/ShuffleOne.sol:ShuffleOne",
        "label": "_symbol",
        "offset": 0,
        "slot": "1",
        "type": "t_string_storage"
      },
      {
        "astId": 291,
        "contract": "contracts/ShuffleOne.sol:ShuffleOne",
        "label": "_owners",
        "offset": 0,
        "slot": "2",
        "type": "t_mapping(t_uint256,t_address)"
      },
      {
        "astId": 295,
        "contract": "contracts/ShuffleOne.sol:ShuffleOne",
        "label": "_balances",
        "offset": 0,
        "slot": "3",
        "type": "t_mapping(t_address,t_uint256)"
      },
      {
        "astId": 299,
        "contract": "contracts/ShuffleOne.sol:ShuffleOne",
        "label": "_tokenApprovals",
        "offset": 0,
        "slot": "4",
        "type": "t_mapping(t_uint256,t_address)"
      },
      {
        "astId": 305,
        "contract": "contracts/ShuffleOne.sol:ShuffleOne",
        "label": "_operatorApprovals",
        "offset": 0,
        "slot": "5",
        "type": "t_mapping(t_address,t_mapping(t_address,t_bool))"
      },
      {
        "astId": 154,
        "contract": "contracts/ShuffleOne.sol:ShuffleOne",
        "label": "_owner",
        "offset": 0,
        "slot": "6",
        "type": "t_address"
      },
      {
        "astId": 1986,
        "contract": "contracts/ShuffleOne.sol:ShuffleOne",
        "label": "participants",
        "offset": 0,
        "slot": "7",
        "type": "t_mapping(t_address,t_struct(Participant)1967_storage)"
      },
      {
        "astId": 1990,
        "contract": "contracts/ShuffleOne.sol:ShuffleOne",
        "label": "NFTsId",
        "offset": 0,
        "slot": "8",
        "type": "t_array(t_uint256)dyn_storage"
      },
      {
        "astId": 1993,
        "contract": "contracts/ShuffleOne.sol:ShuffleOne",
        "label": "entropy",
        "offset": 0,
        "slot": "9",
        "type": "t_uint256"
      },
      {
        "astId": 1997,
        "contract": "contracts/ShuffleOne.sol:ShuffleOne",
        "label": "proceedsClaimed",
        "offset": 0,
        "slot": "10",
        "type": "t_bool"
      },
      {
        "astId": 2001,
        "contract": "contracts/ShuffleOne.sol:ShuffleOne",
        "label": "_soldTicketsCounter",
        "offset": 0,
        "slot": "11",
        "type": "t_struct(Counter)1610_storage"
      },
      {
        "astId": 2007,
        "contract": "contracts/ShuffleOne.sol:ShuffleOne",
        "label": "_requestId",
        "offset": 0,
        "slot": "12",
        "type": "t_uint256"
      }
    ],
    "types": {
      "t_address": {
        "encoding": "inplace",
        "label": "address",
        "numberOfBytes": "20"
      },
      "t_array(t_uint256)dyn_storage": {
        "base": "t_uint256",
        "encoding": "dynamic_array",
        "label": "uint256[]",
        "numberOfBytes": "32"
      },
      "t_bool": {
        "encoding": "inplace",
        "label": "bool",
        "numberOfBytes": "1"
      },
      "t_mapping(t_address,t_bool)": {
        "encoding": "mapping",
        "key": "t_address",
        "label": "mapping(address => bool)",
        "numberOfBytes": "32",
        "value": "t_bool"
      },
      "t_mapping(t_address,t_mapping(t_address,t_bool))": {
        "encoding": "mapping",
        "key": "t_address",
        "label": "mapping(address => mapping(address => bool))",
        "numberOfBytes": "32",
        "value": "t_mapping(t_address,t_bool)"
      },
      "t_mapping(t_address,t_struct(Participant)1967_storage)": {
        "encoding": "mapping",
        "key": "t_address",
        "label": "mapping(address => struct ShuffleOne.Participant)",
        "numberOfBytes": "32",
        "value": "t_struct(Participant)1967_storage"
      },
      "t_mapping(t_address,t_uint256)": {
        "encoding": "mapping",
        "key": "t_address",
        "label": "mapping(address => uint256)",
        "numberOfBytes": "32",
        "value": "t_uint256"
      },
      "t_mapping(t_uint256,t_address)": {
        "encoding": "mapping",
        "key": "t_uint256",
        "label": "mapping(uint256 => address)",
        "numberOfBytes": "32",
        "value": "t_address"
      },
      "t_string_storage": {
        "encoding": "bytes",
        "label": "string",
        "numberOfBytes": "32"
      },
      "t_struct(Counter)1610_storage": {
        "encoding": "inplace",
        "label": "struct Counters.Counter",
        "members": [
          {
            "astId": 1609,
            "contract": "contracts/ShuffleOne.sol:ShuffleOne",
            "label": "_value",
            "offset": 0,
            "slot": "0",
            "type": "t_uint256"
          }
        ],
        "numberOfBytes": "32"
      },
      "t_struct(Participant)1967_storage": {
        "encoding": "inplace",
        "label": "struct ShuffleOne.Participant",
        "members": [
          {
            "astId": 1960,
            "contract": "contracts/ShuffleOne.sol:ShuffleOne",
            "label": "tokenId",
            "offset": 0,
            "slot": "0",
            "type": "t_uint256"
          },
          {
            "astId": 1962,
            "contract": "contracts/ShuffleOne.sol:ShuffleOne",
            "label": "randomIndex",
            "offset": 0,
            "slot": "1",
            "type": "t_uint256"
          },
          {
            "astId": 1964,
            "contract": "contracts/ShuffleOne.sol:ShuffleOne",
            "label": "minted",
            "offset": 0,
            "slot": "2",
            "type": "t_uint256"
          },
          {
            "astId": 1966,
            "contract": "contracts/ShuffleOne.sol:ShuffleOne",
            "label": "ownedTickets",
            "offset": 0,
            "slot": "3",
            "type": "t_uint256"
          }
        ],
        "numberOfBytes": "128"
      },
      "t_uint256": {
        "encoding": "inplace",
        "label": "uint256",
        "numberOfBytes": "32"
      }
    }
  }
}